:020000040800F2
:1000000000000220212A000881060008830600085B
:100010008506000887060008890600080000000021
:10002000000000000000000000000000F1130008C4
:100030008B06000800000000411400085515000858
:10004000712A0008712A0008712A0008712A000824
:10005000712A0008712A0008712A0008712A000814
:10006000712A0008712A0008712A0008712A000804
:10007000712A0008712A0008712A0008712A0008F4
:10008000712A0008712A0008712A0008712A0008E4
:10009000712A0008712A0008712A0008712A0008D4
:1000A000712A0008712A0008712A0008712A0008C4
:1000B000712A0008712A0008712A0008712A0008B4
:1000C000712A0008712A0008712A0008712A0008A4
:1000D000712A0008712A0008712A0008712A000894
:1000E000712A0008712A0008712A0008712A000884
:1000F000712A0008712A0008712A0008712A000874
:10010000712A0008712A0008712A0008712A000863
:10011000712A0008712A0008712A0008712A000853
:10012000712A0008712A0008712A0008712A000843
:10013000712A0008712A0008712A0008712A000833
:10014000712A0008712A0008712A0008712A000823
:10015000712A0008712A0008712A0008712A000813
:10016000712A0008712A0008712A0008712A000803
:10017000712A0008712A0008712A00080000000096
:08018000712A0008712A000831
:1001900010B5054C237833B9044B13B10448AFF3C1
:1001A00000800123237010BD140000200000000017
:1001B000E82A000808B5034B1BB103490348AFF315
:1001C000008008BD0000000018000020E82A000898
:1001D00053B94AB9002908BF00281CBF4FF0FF31AE
:1001E0004FF0FF3000F074B9ADF1080C6DE904CEAA
:1001F00000F006F8DDF804E0DDE9022304B0704702
:100200002DE9F047089D04468E46002B4DD18A42C9
:10021000944669D9B2FA82F252B101FA02F3C2F1FC
:10022000200120FA01F10CFA02FC41EA030E94408D
:100230004FEA1C48210CBEFBF8F61FFA8CF708FBAE
:1002400016E341EA034306FB07F199420AD91CEB86
:10025000030306F1FF3080F01F81994240F21C81B8
:10026000023E63445B1AA4B2B3FBF8F008FB103300
:1002700044EA034400FB07F7A7420AD91CEB040435
:1002800000F1FF3380F00A81A74240F20781644405
:10029000023840EA0640E41B00261DB1D44000238A
:1002A000C5E900433146BDE8F0878B4209D9002DEE
:1002B00000F0EF800026C5E9000130463146BDE878
:1002C000F087B3FA83F6002E4AD18B4202D38242E2
:1002D00000F2F980841A61EB030301209E46002D91
:1002E000E0D0C5E9004EDDE702B9FFDEB2FA82F2E6
:1002F000002A40F09280A1EB0C014FEA1C471FFA44
:100300008CFE0126200CB1FBF7F307FB131140EA2A
:1003100001410EFB03F0884208D91CEB010103F1F7
:10032000FF3802D2884200F2CB804346091AA4B2B9
:10033000B1FBF7F007FB101144EA01440EFB00FE8D
:10034000A64508D91CEB040400F1FF3102D2A645F2
:1003500000F2BB800846A4EB0E0440EA03409CE791
:10036000C6F12007B34022FA07FC4CEA030C20FA3E
:1003700007F401FA06F31C43F9404FEA1C4900FA5E
:1003800006F3B1FBF9F8200C1FFA8CFE09FB1811DB
:1003900040EA014108FB0EF0884202FA06F20BD94E
:1003A0001CEB010108F1FF3A80F08880884240F29E
:1003B0008580A8F102086144091AA4B2B1FBF9F0E2
:1003C00009FB101144EA014100FB0EFE8E4508D9DD
:1003D0001CEB010100F1FF346CD28E456AD9023862
:1003E000614440EA0840A0FB0294A1EB0E01A14247
:1003F000C846A64656D353D05DB1B3EB080261EBB5
:100400000E0101FA07F722FA06F3F1401F43C5E98E
:10041000007100263146BDE8F087C2F12003D840C4
:100420000CFA02FC21FA03F3914001434FEA1C4706
:100430001FFA8CFEB3FBF7F007FB10360B0C43EAF8
:10044000064300FB0EF69E4204FA02F408D91CEBA8
:10045000030300F1FF382FD29E422DD902386344A6
:100460009B1B89B2B3FBF7F607FB163341EA034146
:1004700006FB0EF38B4208D91CEB010106F1FF3895
:1004800016D28B4214D9023E6144C91A46EA00468C
:1004900038E72E46284605E70646E3E61846F8E61E
:1004A0004B45A9D2B9EB020864EB0C0E0138A3E767
:1004B0004646EAE7204694E74046D1E7D0467BE748
:1004C000023B614432E7304609E76444023842E7C0
:1004D000704700BF08B5044A136801331360C82091
:1004E00001F0C0FEF7E700BF3000002030B58BB050
:1004F0000024059406940794089409940094234BCF
:100500001A6B42F004021A631A6B02F004020092A2
:10051000009A01941A6B42F080021A631A6B02F07F
:1005200080020192019A02941A6B42F001021A634E
:100530001A6B02F001020292029A03941A6B42F0C3
:1005400010021A631A6B02F010020392039A0494C9
:100550001A6B42F002021A631B6B03F0020304934E
:10056000049B0B4D22464FF46041284600F0A0FC4E
:100570004FF460430593012306930794089405A95B
:10058000284600F0A3FB0BB030BD00BF003802408E
:100590000010024072B6FEE700B595B0302200218F
:1005A00008A802F099FA0023039304930593069395
:1005B00007930193204A116C41F080511164126C31
:1005C00002F080520192019A02931C4B1A6842F485
:1005D00080421A601B6803F480430293029B01234C
:1005E00008934FF48033099302230E934FF4800253
:1005F0000F92192210924FF4A872119212930423B1
:10060000139308A800F064F888B90F23039302231A
:100610000493002305934FF4A053069307930521F9
:1006200003A800F0A3FA20B915B05DF804FBFFF7AA
:10063000B1FFFFF7AFFF00BF00380240007000407D
:1006400000B583B000F0BEFCFFF7A6FFFFF74EFF3A
:10065000084B01930223009300234FF4967206493E
:10066000064801F081FC01F0D7FF002003B05DF8DF
:1006700004FB00BF34000020002B0008D504000854
:10068000FEE7FEE7FEE7FEE7FEE7704700B583B052
:10069000002200920D4B596C41F480415964596C11
:1006A00001F48041009100990192196C41F0805150
:1006B00019641B6C03F080530193019B0F216FF0B1
:1006C000010000F00DFC03B05DF804FB00380240AF
:1006D000002800F0E08170B582B00446036813F092
:1006E000010F3BD09F4B9B6803F00C03042B2CD0D5
:1006F0009C4B9B6803F00C03082B21D06368B3F577
:10070000803F4FD0B3F5A02F52D0964B1A6822F4F9
:1007100080321A601A6822F480221A606368002B03
:1007200050D000F069FC05468E4B1B6813F4003F67
:1007300014D100F061FC401B6428F5D90320B1E11D
:10074000884B5B6813F4800FD8D0864B1B6813F47A
:10075000003F03D06368002B00F09F81236813F0F3
:10076000020F54D07F4B9B6813F00C0F3ED07D4B93
:100770009B6803F00C03082B33D0E368002B68D090
:10078000794B01221A6000F037FC0546754B1B6857
:1007900013F0020F54D100F02FFC401B0228F5D9B2
:1007A00003207FE16F4A136843F480331360B5E799
:1007B0006C4B1A6842F480221A601A6842F4803244
:1007C0001A60ABE700F018FC0546664B1B6813F493
:1007D000003FC3D000F010FC401B6428F5D9032073
:1007E00060E1604B5B6813F4800FC6D15D4B1B6802
:1007F00013F0020F03D0E368012B40F05081594AF7
:10080000136823F0F803216943EAC10313602368E6
:1008100013F0080F42D063696BB3534B0122C3F846
:10082000802E00F0E9FB05464E4B5B6F13F0020F84
:1008300034D100F0E1FB401B0228F5D9032031E15F
:10084000484A136823F0F803216943EAC10313609F
:10085000DDE7454B00221A6000F0CEFB0546414B18
:100860001B6813F0020FD2D000F0C6FB401B022819
:10087000F5D9032016E13C4B0022C3F8802E00F08E
:10088000BBFB0546374B5B6F13F0020F06D000F041
:10089000B3FB401B0228F5D9032003E1236813F0C2
:1008A000040F77D02F4B1B6C13F0805F33D10023E4
:1008B00001932C4B1A6C42F080521A641B6C03F0AB
:1008C00080530193019B0125284B1B6813F4807F03
:1008D00023D0A368012B34D0052B38D0214B1A6FBD
:1008E00022F001021A671A6F22F004021A67A36845
:1008F000002B3DD000F080FB06461A4B1B6F13F017
:10090000020F46D100F078FB801B41F288339842F9
:10091000F3D90320C6E00025D6E7144A136843F450
:100920008073136000F068FB0646104B1B6813F4DD
:10093000807FCED100F060FB801B0228F5D9032018
:10094000B0E0084A136F43F001031367CFE7054B8C
:100950001A6F42F004021A671A6F42F001021A6716
:10096000C5E700BF00380240000047420070004069
:1009700000F042FB0646524B1B6F13F0020F08D0EB
:1009800000F03AFB801B41F288339842F3D90320F0
:1009900088E0EDB9A369002B00F08380484A926893
:1009A00002F00C02082A51D0022B17D0454B00222E
:1009B0001A6600F021FB0446414B1B6813F0007FD0
:1009C00042D000F019FB001B0228F5D9032069E092
:1009D0003B4A136C23F080531364DBE7394B00224E
:1009E0001A6600F009FB0546354B1B6813F0007FC3
:1009F00006D000F001FB401B0228F5D9032051E08E
:100A0000E369226A1343626A43EA8213A26A5208C4
:100A1000013A43EA0243E26A43EA0263284A536026
:100A2000284B01221A6600F0E7FA0446244B1B68A3
:100A300013F0007F06D100F0DFFA001B0228F5D981
:100A400003202FE000202DE000202BE0012B2BD0F5
:100A50001B4B5B6803F48001E269914226D103F0ED
:100A60003F02216A8A4223D1616A47F6C0721A4066
:100A7000B2EB811F1ED103F44031A26A5208013A41
:100A8000B1EB024F18D103F07063E26AB3EB026F6F
:100A900014D1002006E001207047012002E001206F
:100AA00000E0002002B070BD0120FBE70120F9E763
:100AB0000120F7E70120F5E70120F3E70120F1E746
:100AC000003802400000474208B5254B9B6803F000
:100AD0000C03042B3FD0082B3FD1214B5A6802F066
:100AE0003F025B6813F4800F12D01D4B5968C1F3AD
:100AF00088111C480023A1FB0001FFF769FB184B7C
:100B00005B68C3F3014301335B00B0FBF3F025E006
:100B1000134B5968C1F3881C4FEA4C11B1EB0C0020
:100B20006EEB0E0E4FEA8E1343EA90638101091AB1
:100B300063EB0E03DB0043EA5173C90011EB0C0CAD
:100B400043F10003990200234FEA8C2041EA9C51B3
:100B5000FFF73EFBD3E7034800E0034808BD00BFB2
:100B60000038024040787D010024F400002800F0A5
:100B70009B8070B50D4604464F4B1B6803F007037E
:100B80008B4208D2CBB24C4A1370136803F00703B0
:100B90008B4240F08B80236813F0020F17D013F0C4
:100BA000040F04D0454A936843F4E05393602368EC
:100BB00013F0080F04D0414A936843F460439360F4
:100BC0003E4A936823F0F003A1680B4393602368C7
:100BD00013F0010F32D06368012B21D09A1E012A35
:100BE00025D9364A126812F0020F61D033498A685B
:100BF00022F0030213438B6000F0FEF906462F4BF0
:100C00009B6803F00C036268B3EB820F16D000F010
:100C1000F3F9801B41F288339842F0D9032042E077
:100C2000264A126812F4003FE0D101203BE0234A3B
:100C3000126812F0007FD9D1012034E01E4B1B68EE
:100C400003F00703AB4207D9EAB21B4B1A701B68CB
:100C500003F00703AB422DD1236813F0040F06D035
:100C6000164A936823F4E053E1680B4393602368CA
:100C700013F0080F07D0114A936823F460432169E9
:100C800043EAC1039360FFF71FFF0C4B9B68C3F35C
:100C900003130B4AD35CD8400A4B18600A4B186800
:100CA00000F06AF9002070BD012070470120FAE7CA
:100CB0000120F8E70120F6E7003C0240003802403E
:100CC000082B0008080000200400002000230F2B40
:100CD00000F2E48070B582B060E085685E000324B5
:100CE000B44025EA0405CC68B4402C4384604568D0
:100CF00025EA02054C68C4F300129A402A43426078
:100D00005AE0DC08083450F8246003F0070295002C
:100D10000F22AA4026EA020E0A69AA4042EA0E02FF
:100D200040F824205CE0072200E0002202FA0EF2E4
:100D30002A4302345A4D45F824205A4A94686FEAEF
:100D40000C0224EA0C054E6816F4801F01D04CEA10
:100D50000405544CA560E46802EA04054E6816F4E4
:100D6000001F01D04CEA04054E4CE560646802EABD
:100D700004054E6816F4003F01D04CEA0405494CC6
:100D80006560246822404D6815F4803F01D04CEA2C
:100D90000402444C226001330F2B7DD801229A407B
:100DA0000C6804EA020C32EA0404F4D14C6804F042
:100DB0000304013C012C90D94A6802F00302032A83
:100DC00009D0C4685D000322AA4024EA02048A68AC
:100DD000AA402243C2604A6802F00302022A90D06D
:100DE00004684FEA430E032202FA0EF224EA0204D8
:100DF0004A6802F0030202FA0EF2224302604A68D5
:100E000012F4403FC7D000220192274A546C44F4A8
:100E100080445464526C02F480420192019A9C080E
:100E2000A51C1F4A52F8255003F003024FEA820E18
:100E30000F2202FA0EF225EA02051C4A90423FF404
:100E400074AF02F5806290421AD002F5806290423F
:100E500018D002F58062904216D002F5806290426E
:100E600014D002F58062904212D002F58062904266
:100E700010D002F5806290423FF455AF082255E74A
:100E8000012253E7022251E703224FE704224DE7F4
:100E900005224BE7062249E702B070BD704700BF4C
:100EA00000380140003C0140003802400000024090
:100EB0000AB181617047090481617047074AD368AC
:100EC00023F4E0631B041B0C000200F4E060034306
:100ED00043F0BF6343F40033D360704700ED00E09C
:100EE00000B5194BDB68C3F30223C3F1070CBCF157
:100EF000040F28BF4FF0040C03F1040EBEF1060FDF
:100F000018D9033B4FF0FF3E0EFA0CFC21EA0C010E
:100F100099400EFA03F322EA0303194300280BDB7E
:100F20000901C9B200F1604000F5614080F800138A
:100F30005DF804FB0023E5E700F00F000901C9B2EA
:100F4000024B1954F4E700BF00ED00E014ED00E09F
:100F50000138B0F1807F0BD24FF0E0235861054A91
:100F6000F02182F823100020986107221A6170474F
:100F70000120704700ED00E010B504460E4B1878D4
:100F80004FF47A73B3FBF0F30C4A1068B0FBF3F044
:100F9000FFF7DEFF68B90F2C01D901200AE000221B
:100FA00021464FF0FF30FFF79BFF054B1C600020F0
:100FB00000E0012010BD00BF00000020080000205C
:100FC0000400002008B50B4B1A6842F400721A6046
:100FD0001A6842F480621A601A6842F480721A60D9
:100FE0000320FFF76BFF0F20FFF7C6FFFFF74EFB55
:100FF000002008BD003C0240014B1868704700BF4C
:1010000038000020034AD2F8883043F47003C2F855
:101010008830704700ED00E0104A12F0070F1AD038
:10102000D11D21F00701C1F5805313440A460C4835
:101030000260002141601344083B23F00703094884
:10104000036059601960991A51601360064B19606A
:10105000064B196070474FF48053E8E740000020CA
:10106000501000203C0000204410002040100020C0
:101070001F4B19461B688342FBD31D4A91420FD078
:101080001C4A914203D302F6FF72914208D94FF0F5
:10109000F00383F31188BFF36F8FBFF34F8FFEE729
:1010A0004A6801EB020C844509D0426800EB020C4F
:1010B000634509D00360884219D0086070474068D2
:1010C00002444A600846F0E710B40B4C2468A3427F
:1010D0000BD05B681A4442600B681B68036088424F
:1010E00000D008605DF8044B70470460F7E7704774
:1010F00050100020400000203C00002070B5044645
:1011000070B110F1090F0AD8083414F0070307D0A2
:10111000C3F10803DA43A24224D31C4400E00024B4
:1011200000F034FF504B1B68F3B1002CC0F28480F8
:10113000002C00F083804D4B1868A042C0F08D80D9
:101140004B4B1B684B4A934203D302F6FF72934208
:1011500016D94FF0F00383F31188BFF36F8FBFF3FD
:101160004F8FFEE70024DBE7FFF756FFDDE74FF088
:10117000F00383F31188BFF36F8FBFF34F8FFEE748
:101180003B495A68A2420AD21A6842B139498A4296
:10119000EDD31946384B9A42E9D81346F1E7324A63
:1011A00012689A425BD00D680835324A954203D3E3
:1011B00002F6FF72954208D94FF0F00383F31188CD
:1011C000BFF36F8FBFF34F8FFEE71A680A605A684C
:1011D000A2420FD3121B102A1AD91E1916F0070F9C
:1011E00011D04FF0F00383F31188BFF36F8FBFF37B
:1011F0004F8FFEE74FF0F00383F31188BFF36F8F3B
:10120000BFF34F8FFEE772605C600A681A510E6090
:101210005A68801A1549086018490968884201D23D
:101220001649086042F000425A6000221A60144ACF
:1012300013680133136002E0002500E0002500F090
:1012400065FF15F0070F0CD04FF0F00383F3118802
:10125000BFF36F8FBFF34F8FFEE70025EFE7002549
:10126000EDE7284670BD00BF3C0000204010002084
:1012700050100020400000203F10002044100020AB
:101280004810002000284CD038B50446A0F10805CD
:10129000244B9D4210D303F6FF739D420CD850F8A7
:1012A000043C002B11DB4FF0F00383F31188BFF3F4
:1012B0006F8FBFF34F8FFEE74FF0F00383F311887A
:1012C000BFF36F8FBFF34F8FFEE750F8082C42B18A
:1012D0004FF0F00383F31188BFF36F8FBFF34F8F8D
:1012E000FEE7002B16DA23F0004340F8043C072BFE
:1012F00011D800F04BFE54F8041C0B4A13680B4441
:1013000013602846FFF7B4FE084A136801331360E0
:1013100000F0FCFE38BDA3F10802002101F0DCFB67
:10132000E7E7704740000020401000204C100020EC
:1013300000F1080343604FF0FF328260C360036135
:1013400000230360704700230361704730B40D68C9
:10135000B5F1FF3F11D000F108031C465B681A6825
:10136000AA42FAD963684B6099608C606160086139
:1013700003680133036030BC70470469F2E7036916
:10138000416882688A60416851605A68824205D02B
:1013900000220261186801381860704782685A603C
:1013A000F6E7000082B0002301930D4B1B68B3F1F8
:1013B000FF3F08D04FF0F00383F31188BFF36F8F26
:1013C000BFF34F8FFEE74FF0F00383F31188BFF3B5
:1013D0006F8FBFF34F8F019B002BFCD002B0704783
:1013E0000C000020000000000000000000000000D1
:1013F000074B19680868B0E8F04F80F30988BFF31D
:101400006F8F4FF0000080F311887047AFF30080BA
:10141000A010002008480068006880F308884FF09A
:10142000000080F3148862B661B6BFF34F8FBFF33C
:101430006F8F00DF00BF000008ED00E0000000003B
:10144000EFF30980BFF36F8F154B1A681EF0100F72
:1014500008BF20ED108A20E9F04F10602DE9090047
:101460004FF0F00080F31188BFF34F8FBFF36F8F01
:1014700000F020FF4FF0000080F3118809BC1968CC
:101480000868B0E8F04F1EF0100F08BFB0EC108AEB
:1014900080F30988BFF36F8F704700BFAFF3008000
:1014A000A0100020DFF80C00016841F47001016019
:1014B0007047000088ED00E04FF0807340F8043C76
:1014C00021F0010140F8081C054B40F80C3C40F8A5
:1014D000202C6FF0020340F8243C4438704700BFD2
:1014E000A51300084FF0F00383F31188BFF36F8F4B
:1014F000BFF34F8F0B4A136801331360012B00D0E9
:1015000070474FF0E023D3F8043D13F0FF0FF7D0FE
:101510004FF0F00383F31188BFF36F8FBFF34F8F4A
:10152000FEE700BF0C000020094B1B6843B94FF0D9
:10153000F00383F31188BFF36F8FBFF34F8FFEE784
:10154000013B034A13600BB983F31188704700BF56
:101550000C00002008B54FF0F00383F31188BFF3AF
:101560006F8FBFF34F8F00F01FFD28B14FF0E023C6
:101570004FF08052C3F8042D002383F3118808BD77
:101580004FF0E02300221A619A61024A5A61072251
:101590001A617047FF7002004FF0E023D3F8002D6E
:1015A0005A4B9A4217D04FF0E023D3F8002D584BF6
:1015B0009A4219D04FF0E023D3F8083DD96A554A32
:1015C00091421AD04FF0F00383F31188BFF36F8F6D
:1015D000BFF34F8FFEE74FF0F00383F31188BFF3A3
:1015E0006F8FBFF34F8FFEE74FF0F00383F3118847
:1015F000BFF36F8FBFF34F8FFEE79A6B464B9A4254
:1016000008D04FF0F00383F31188BFF36F8FBFF35F
:101610004F8FFEE730B583B0002301933F4B1A781C
:10162000D2B28DF80220FF221A701B78DBB28DF83F
:1016300003309DF8033003F0F003394A137043B9C7
:101640004FF0F00383F31188BFF36F8FBFF34F8F19
:10165000FEE79DF80330DB4313F0F00F08D04FF0A6
:10166000F00383F31188BFF36F8FBFF34F8FFEE753
:101670009DF8033013F0800F09D0019B01330193D3
:101680009DF803305B00DBB28DF80330F0E7019B7F
:10169000082B36D0019BC3F10703224A1360214A6D
:1016A00013681B02136003F4E06313609DF80230BB
:1016B000DBB21A4A13704FF0E024D4F8203D43F413
:1016C0007F03C4F8203DD4F8203D43F07F43C4F8A5
:1016D000203D0025C4F81C5DFFF752FF124B1D6032
:1016E000FFF7E0FED4F8343F43F04043C4F8343F02
:1016F000FFF790FE00F0DEFDFFF754FE284603B032
:1017000030BD084B00221A60C9E700BF71C20F410B
:1017100070C20F41F11300084114000800E400E01A
:10172000581000205C1000200C00002010B504466A
:10173000FFF7D8FEA36B23B90124FFF7F5FE20467F
:1017400010BD0024F9E70346026C6AB110B50846E3
:10175000D9681144D9609C68A14201D31968D96045
:10176000D96801F0ABF910BD704738B50546FFF7F1
:10177000B9FE95F8454064B201E0013C64B2002C2A
:101780000ADD6B6A43B105F1240000F021FE002858
:10179000F3D000F0E9FEF0E7FF2385F84530FFF7CE
:1017A000C3FEFFF79FFE95F8444064B201E0013CA0
:1017B00064B2002C0ADD2B6943B105F1100000F082
:1017C00007FE0028F3D000F0CFFEF0E7FF2385F8F6
:1017D0004430FFF7A9FE38BD38B590B10D46044638
:1017E000C36B2BB1026C0021A3FB022393B999B107
:1017F0004FF0F00383F31188BFF36F8FBFF34F8F68
:10180000FEE74FF0F00383F31188BFF36F8FBFF350
:101810004F8FFEE70121EAE7FFF764FE2368E26BE2
:10182000216C01FB0230A0600020A0636360013ADC
:1018300002FB0133E360FF2384F8443084F8453031
:10184000B5B923691BB9FFF76FFE012038BD04F15C
:10185000100000F0BDFD0028F5D04FF0E0234FF060
:101860008052C3F8042DBFF34F8FBFF36F8FEAE7A9
:1018700004F11000FFF75CFD04F12400FFF758FDB0
:10188000E1E710B5034602980C4631B90060C36326
:1018900004640121FFF7A0FF10BD0260F7E7A3B1C8
:1018A00010B584B01C46D8B102B1C9B1B2B1482359
:1018B0000393039B482B1CD04FF0F00383F3118854
:1018C000BFF36F8FBFF34F8FFEE74FF0F00383F34B
:1018D0001188BFF36F8FBFF34F8FFEE70029E6D06B
:1018E0004FF0F00383F31188BFF36F8FBFF34F8F77
:1018F000FEE7039B012384F8463000949DF81830DE
:10190000FFF7BFFF204604B010BDF0B585B00192CF
:1019100090B10F460446C1B100F02CFE064600BB54
:10192000019B002B5ED04FF0F00383F31188BFF3CF
:101930006F8FBFF34F8FFEE74FF0F00383F31188F3
:10194000BFF36F8FBFF34F8FFEE7036C002BE3D025
:101950004FF0F00383F31188BFF36F8FBFF34F8F06
:10196000FEE700263EE039462046FFF7ECFE013D4B
:10197000A563236923B9FFF7D7FD012005B0F0BDAA
:1019800004F1100000F024FD0028F4D04FF0E02313
:101990004FF08052C3F8042DBFF34F8FBFF36F8F0A
:1019A000E9E7FFF7C1FD0020E8E702A800F08CFDA1
:1019B000012621E0002384F8443029E0002384F844
:1019C00045302BE02046FFF7D0FE00F09FFB09E0FA
:1019D0002046FFF7CAFE00F099FB2046FFF7A6FE5F
:1019E00000283FD1FFF77EFDA56B002DBBD1019BE9
:1019F000002BD6D0002ED8D0FFF796FD00F0C6FA07
:101A0000FFF770FD94F844305BB2B3F1FF3FD1D0E3
:101A100094F845305BB2B3F1FF3FCFD0FFF784FDC0
:101A200001A902A800F05CFD0028D1D12046FFF7F3
:101A30007DFE0028C6D0019904F1240000F086FC48
:101A40002046FFF792FE00F061FB0028CAD14FF05C
:101A5000E0234FF08052C3F8042DBFF34F8FBFF344
:101A60006F8FBFE7002089E730B110B40C46014604
:101A70008CB10020034612E04FF0F00383F311888D
:101A8000BFF36F8FBFF34F8FFEE70E4800EBC3002D
:101A900008B1046041605DF8044B70470133072BC7
:101AA000F6D8084A02EBC30252688A42EDD00028F9
:101AB000F4D1044A52F83320002AEFD1014800EB58
:101AC000C300EBE76010002070B504460D461646D3
:101AD000FFF708FD94F844305BB2B3F1FF3F0DD03F
:101AE00094F845305BB2B3F1FF3F0BD0FFF71CFD1C
:101AF000A36B5BB12046FFF738FE70BD002384F86E
:101B00004430EDE7002384F84530EFE732462946BC
:101B100004F1240000F032FCECE70000074B1B68E6
:101B20001B6823B9064B4FF0FF321A607047034B16
:101B30001B68DB681A68024B1A607047A41000200B
:101B4000C01700202DE9F04107469846069E089CE4
:101B5000206B02F18043013B00EB830323F0070578
:101B600081B18C4600220F2A09D81CF80210A31854
:101B700083F834101CF8021009B10132F3E7002396
:101B800084F843301F2E08D94FF0F00383F31188F7
:101B9000BFF36F8FBFF34F8FFEE7E6626664201DD1
:101BA000FFF7D1FB04F11800FFF7CDFB2461C6F16C
:101BB0002006A6616462424639462846FFF77CFC4F
:101BC0002060079B03B11C60BDE8F0812DE9F04166
:101BD00086B00D9E9EB10446884617461D460E9B54
:101BE000B3B154230593059B542B1AD04FF0F00347
:101BF00083F31188BFF36F8FBFF34F8FFEE74FF072
:101C0000F00383F31188BFF36F8FBFF34F8FFEE7AD
:101C10004FF0F00383F31188BFF36F8FBFF34F8F43
:101C2000FEE7059B542200210E9800F055FF0E9B05
:101C30001E6302230E9A82F851300023039302920E
:101C40000F9B01930C9B00932B463A46414620463E
:101C5000FFF778FF0E9806B0BDE8F08138B5002494
:101C600007E004EB840293000E481844FFF760FB82
:101C700001341F2CF5D90C4D2846FFF759FB0B4CAE
:101C80002046FFF755FB0A48FFF752FB0948FFF7CC
:101C90004FFB0948FFF74CFB084B1D60084B1C60CD
:101CA00038BD00BFAC1000204017002054170020A2
:101CB000CC170020F8170020E4170020A410002003
:101CC000A810002010B50446FFF70CFC2A4A136840
:101CD00001331360294B1B685BB1294B1B686BB93F
:101CE000264B1B68DA6AE36A9A4207D8234B1C60CA
:101CF00004E0224B1C601368012B39D0214A136881
:101D000001331360E36A204A1268934201D91E4AE4
:101D100013601E4A03EB830302EB83035B68A3603B
:101D20009868E060211D41609960E36A03EB8301DC
:101D300002EB8100606152F82110013103EB830353
:101D400042F82310FFF7F0FB0D4B1B687BB10B4BE8
:101D50001B68DA6AE36A9A4209D24FF0E0234FF037
:101D60008052C3F8042DBFF34F8FBFF36F8F10BDA8
:101D7000FFF774FFC2E700BF2C130020A010002063
:101D8000E0170020381500203C170020AC10002080
:101D90002DE9F04385B006460F461546984690005B
:101DA000FFF7ACF9814610B35420FFF7A7F90446BA
:101DB000C8B15422002100F08FFEC4F8309074B1F5
:101DC000002384F85130039302940D9B01930C9BE4
:101DD000009343462A4639463046FFF7B3FE204675
:101DE00005B0BDE8F0834846FFF74CFAE7E7044644
:101DF000F5E710B5044690F8513063B1012B11D0CE
:101E0000022B0ED04FF0F00383F31188BFF36F8FD6
:101E1000BFF34F8FFEE7006BFFF734FA2046FFF762
:101E200031FA10BDFFF72EFAFBE700000F4B1B68DD
:101E3000D3B110B5FFF756FB0D4BDB68DC68201DF6
:101E4000FFF79DFA0B4A1368013B1360074A1368BA
:101E5000013B1360FFF768FB2046FFF7CAFF034B07
:101E60001B68002BE6D110BD704700BF3013002067
:101E7000F81700202C13002008B5FFF7D7FF074BF9
:101E80001B68012BF9D94FF0E0234FF08052C3F8C3
:101E9000042DBFF34F8FBFF36F8FEEE7AC10002020
:101EA0002DE9F04104460E461F4B1D681F4B1F686D
:101EB0001F4BD3F800801F4B18680430FFF75FFA00
:101EC000B4F1FF3F0DD02C441A4B1B685C60A54257
:101ED0001DD9184B196804314046FFF737FABDE8A1
:101EE000F081002EEFD0144A5168124B18688160BF
:101EF00018688C68C4601868043060601868043022
:101F000088601B685A61136801331360E7E7094B67
:101F1000196804313846FFF719FA084B1B68A342C9
:101F2000DDD9064B1C60DAE70C180020A410002055
:101F3000A8100020A0100020E4170020C0170020E7
:101F400010B586B00024059405AC03940A9C029455
:101F5000099C0194089C0094FFF738FE08B1FFF734
:101F6000B1FE059806B010BD10B582B0059C019475
:101F7000049C0094FFF70CFF20B1FFF7A3FE0120A3
:101F800002B010BD4FF0FF30FAE70000024A1368BC
:101F900001331360704700BF34150020014B1868EF
:101FA000704700BF0C1800204D4B1B68002B40F001
:101FB0008E8070B54B4B1C6801341C60C4B94A4B11
:101FC0001B681B6843B14FF0F00383F31188BFF324
:101FD0006F8FBFF34F8FFEE7434A1168434B18687A
:101FE00010601960424A136801331360FFF796FDD1
:101FF000404B1B68A34205D900203F4B1B68002BB8
:102000006BD170BD002037E03A4B4FF0FF321A60C1
:10201000F3E7384B1A60F0E7D968516042E00021DD
:102020009962116801391160DA6A344909688A4293
:1020300001D932490A60324902EB82024FEA820C2E
:102040008C44DCF804209A609668DE6075609560C8
:10205000DA6A02EB820C4FEA8C054E195E614D592B
:1020600001354FEA8C0C41F80C50DA6A254B1B689D
:10207000DB6A9A4200D901201B4B1B681B68002BAE
:10208000C2D0194B1B68DB68DB685A689442C0D326
:102090005A699D68D968A9609D684D6051681D1D89
:1020A000A942B9D0002159611168013911609A6AB9
:1020B000002AB9D0DE69196AB160DE694E605668DF
:1020C00003F118018E42AAD1196A5160A7E70E4A9E
:1020D00013680133136000207047012091E700BFAF
:1020E000341500200C180020A4100020A810002097
:1020F000C4170020C0170020641800203C170020DF
:10210000AC100020A0100020C817002010B5FFF769
:10211000E9F94C4B1B6843B94FF0F00383F3118886
:10212000BFF36F8FBFF34F8FFEE7464B1A68013A3C
:102130001A601B68002B7FD1434B1B683BB90024FE
:102140007BE0196A516015E0D968516021E00023F5
:102150003E4A1268002A4AD03C4BDB68DB689A6A28
:10216000D869196A8160D8694860506803F118011C
:102170008842E6D0002199621168013911605A69DC
:102180009868D9688160986848605168181D8142D4
:10219000DAD000215961116801391160DA6A2C49DD
:1021A00009688A4201D92A490A602A4902EB820257
:1021B00001EB820252689A609468DC606060906013
:1021C000DA6A02EB820001EB80045C6151F82000C6
:1021D000013002EB820241F82200D96A1E4A1268DD
:1021E000D26A9142B4D91D4A01211160B0E70BB106
:1021F000FFF794FC1A4B1C6894B9184B1C68E4B1A7
:10220000154B1B684FF0E0234FF08052C3F8042DAC
:10221000BFF34F8FBFF36F8F01240EE0013C07D057
:10222000FFF7C2FE0028F9D00C4B01221A60F5E737
:102230000B4B00221A60E0E70024FFF775F92046F7
:1022400010BD00BF341500202C130020CC17002037
:102250003C170020AC100020A010002064180020C3
:10226000C817002010B550B94FF0E0234FF080524E
:10227000C3F8042DBFF34F8FBFF36F8F10BD04461B
:10228000FFF784FE0A4B1B68012B08D04FF0F003C8
:1022900083F31188BFF36F8FBFF34F8FFEE70021E9
:1022A0002046FFF7FDFDFFF731FF0028E6D1DBE711
:1022B00034150020204B1B681BB1204B01221A60F3
:1022C00070471E4B00221A601D4B1B6803EB8301F5
:1022D0008A001C498A585AB90BB1013BF6E74FF006
:1022E000F00383F31188BFF36F8FBFF34F8FFEE7C7
:1022F00003EB830082000A4450684068506003EB9F
:10230000830C4FEA8C020832114488420CD003EB54
:10231000830291000B4A0A445268D1680A4A11604C
:1023200007490B601368704762469100054A0A44EA
:10233000D1685160EBE700BF34150020641800201D
:102340003C170020AC100020A010002058B110B5A0
:102350000C46094A11681831FEF7F8FF01212046A2
:10236000FFF79EFD10BD4FF0F00383F31188BFF31C
:102370006F8FBFF34F8FFEE7A010002038B5D8B1A4
:102380008C46114605464268104B1868C2611868B1
:10239000946804621868183060601868183090609B
:1023A0001B689D622B6801332B6009B14FF0FF3C25
:1023B0006046FFF775FD38BD4FF0F00383F31188D9
:1023C000BFF36F8FBFF34F8FFEE700BFA010002059
:1023D000C368DB68002B4ED010B49A6AD869196ABA
:1023E0008160D8694860516803F1180081424BD080
:1023F000002199621168013911602D4A1268002A82
:1024000048D15A699868D96881609868486051686D
:10241000181D81423BD000215961116801391160BA
:10242000DA6A244909688A4201D922490A602249A4
:1024300002EB820201EB820252689A609468DC60CF
:1024400060609060DA6A02EB820001EB80045C61FC
:1024500051F82000013002EB820241F82200DA6AD2
:10246000164B1B68DB6A9A4220D90120144B186076
:102470005DF8044B70474FF0F00383F31188BFF30E
:102480006F8FBFF34F8FFEE7196A5160B0E7D968CD
:102490005160C0E70B4A5168D9618C681C6260606A
:1024A00088609A62116801311160D8E70020DFE787
:1024B000341500203C170020AC100020A010002094
:1024C00064180020CC170020034B1B680360034BEB
:1024D0001B684360704700BFC41700200C18002021
:1024E000F8B5B8B10C460546E9B1FEF7FBFF1C4B49
:1024F00019686B68C81A2268B2F1FF3F2AD0194EDA
:1025000036682F68B74217D08B4215D80023236056
:10251000012420E04FF0F00383F31188BFF36F8FA5
:10252000BFF34F8FFEE74FF0F00383F31188BFF343
:102530006F8FBFF34F8FFEE7824203D800232360E3
:10254000012408E05B1A134423602846FFF7BCFF10
:10255000002400E00024FEF7E7FF2046F8BD00BF9E
:102560000C180020C4170020014B01221A6070478C
:1025700064180020054B1B6833B1054B1B680BB179
:10258000002070470220704701207047E0170020AC
:1025900034150020034B0360034B0B608023136052
:1025A000704700BF6C1700203413002030B58DB089
:1025B00000230F2B09DC154AD25C03F1300169447A
:1025C00001F8102C0AB10133F3E70024002C02DDDE
:1025D00001200DB030BD00250595069507AA06A976
:1025E00005A8FFF7D7FF059B0293069B0193009573
:1025F0002B46079A08A90648FFF7A2FC054B43F8AB
:10260000240008B10134E1E70020E2E7182B0008BC
:10261000791E00086817002008B5FFF7C7FF0128DA
:1026200007D0012808D0B0F1FF3F1AD0114B1B682A
:1026300008BD00F0C3F9F4E74FF0F00383F311880D
:10264000BFF36F8FBFF34F8F0B4B4FF0FF321A600A
:102650000A4B01221A600A4B00221A60FEF79CFF07
:10266000E4E74FF0F00383F31188BFF36F8FBFF3FC
:102670004F8FFEE710000020C0170020E017002059
:102680000C180020034B0360034B0B608023136086
:10269000704700BF101800203C150020064B1A6838
:1026A00013682BB90123036023B9D36818687047F6
:1026B0000023F8E7002070476818002008B5416043
:1026C000006191420CD8D21A83699A4201D3012049
:1026D00008BD011D094B1868FEF738FE0020F7E71A
:1026E0009A4201D2994206D2011D054B1868FEF7A5
:1026F0002DFE0020ECE70120EAE700BF6C18002067
:102700006818002070B504460D46164604E0A3691B
:102710001D44236A20469847A1692B463246294426
:102720002046FFF7CBFF0028F1D170BD70B50546FC
:102730000E460D4B1B68DB68DC68201DFEF71FFE94
:1027400094F8243013F0040F07D123F0010384F828
:102750002430236A2046984770BD324629462046D9
:10276000FFF7D0FFF5E700BF6818002008B505E0C7
:10277000DB684FF0FF311868FFF7D8FF054B1B6887
:102780001A68002AF4D1044A1068024908601360EC
:1027900008BD00BF681800206C18002038B5054639
:1027A000FFF7FCFB0446074B1B68834205D8002358
:1027B0002B60044B1C60204638BDFFF7D7FF012378
:1027C0002B60F6E71019002070B582B006460C4663
:1027D000FFF7DCFB01A8FFF7E1FF019B33BB0546D8
:1027E0000CB9B04219D224B1124A12681268DAB98F
:1027F00001242246711B104B1868FFF765F9FFF79B
:1028000085FCA8B94FF0E0234FF08052C3F8042DA7
:10281000BFF34F8FBFF36F8F0AE0FFF777FC2946B6
:102820003046FFF783FF03E01C46E2E7FFF76EFC4C
:1028300002B070BD6C1800205C19002030B585B066
:102840000023019302930393002201A9384B1868D7
:10285000FFF75BF8002869D0019B002BF4DB039C99
:10286000636913B1201DFEF78AFD6846FFF796FFE6
:102870000546019B013B082BE6D8DFE803F0050580
:10288000293049050529300094F8243043F001032C
:1028900084F82430029BA169024619442046FFF7C0
:1028A0000DFF0028D0D094F8243013F0040F07D186
:1028B00023F0010384F82430236A20469847C3E7B5
:1028C000A3692A46029919442046FFF71BFFF3E744
:1028D00094F8243023F0010384F82430B4E794F80A
:1028E000243043F0010384F824300299A16131B10E
:1028F0000346024601442046FFF7E0FEA4E74FF0FE
:10290000F00383F31188BFF36F8FBFF34F8FFEE7A0
:1029100094F8243013F0020F04D023F0010384F85C
:10292000243091E72046FEF7ADFC8DE705B030BDC1
:102930005C19002000B583B001A8FFF7AFFE019934
:10294000FFF742FFFFF77AFFF6E7000030B583B0EC
:10295000FEF7C8FD114B1B681BB1FEF7E5FD03B088
:1029600030BD0F4D2846FEF7E3FC0E4C2046FEF727
:10297000DFFC0D4B1D600D4B1C60002300930C4BC6
:102980000C4A0C210A20FEF78AFF044B186000282D
:10299000E3D00949FFF768F8DFE700BF5C190020C2
:1029A000E8180020FC180020681800206C1800208F
:1029B0001419002070180020202B000810B588B0D2
:1029C000FFF7C4FF124B1B68CBB10024059406949B
:1029D00007AA06A905A8FFF755FE059B0293069BCB
:1029E00001931F2300932346079A0A490A48FFF7D9
:1029F000A7FA0A4B186010B1012008B010BD4FF0C3
:102A0000F00383F31188BFF36F8FBFF34F8FFEE79F
:102A10005C190020282B00083529000860190020C7
:102A2000DFF834D00D480E490E4A002302E0D45896
:102A3000C4500433C4188C42F9D30B4A0B4C002306
:102A400001E013600432A242FBD3FEF7DBFA00F090
:102A500011F8FDF7F5FD704700000220000000208E
:102A600014000020402B00081400002064190020EE
:102A7000FEE7000070B50D4D0D4C641BA410002640
:102A8000A64209D10B4D0C4C00F02EF8641BA4108B
:102A90000026A64205D170BD55F8043B9847013683
:102AA000EEE755F8043B98470136F2E7382B00086B
:102AB000382B0008382B00083C2B00080A449142B0
:102AC00000F1FF3300D1704710B511F8014B03F846
:102AD000014F9142F9D110BD02440346934200D107
:102AE000704703F8011BF9E7F8B500BFF8BC08BC54
:102AF0009E467047F8B500BFF8BC08BC9E467047BC
:102B00007461736B310000000000000000000000E1
:102B1000010203040607080949444C45000000006F
:102B2000546D725100000000546D722053766300A2
:082B3000D0D6FF7F0100000078
:042B3800B5010008DB
:042B3C0091010008FB
:102B400001000000100000000024F400AAAAAAAAB4
:042B50001F00000062
:0400000508002A21A4
:00000001FF
