:020000040800F2
:100000000000022029170008A1060008A306000826
:10001000A5060008A7060008A906000800000000C1
:10002000000000000000000000000000AB06000817
:10003000AD06000800000000AF060008B106000889
:100040007917000879170008791700087917000850
:100050007917000879170008791700087917000840
:100060007917000879170008791700087917000830
:100070007917000879170008791700087917000820
:100080007917000879170008791700087917000810
:100090007917000879170008791700087917000800
:1000A00079170008791700087917000879170008F0
:1000B00079170008791700087917000879170008E0
:1000C00079170008791700087917000879170008D0
:1000D00079170008791700087917000879170008C0
:1000E00079170008791700087917000879170008B0
:1000F00079170008791700087917000879170008A0
:10010000791700087917000879170008791700088F
:10011000791700087917000879170008791700087F
:10012000791700087917000879170008791700086F
:1001300079170008B9060008C906000879170008F1
:10014000791700087917000879170008791700084F
:10015000791700087917000879170008791700083F
:10016000791700087917000879170008791700082F
:1001700079170008791700087917000800000000B7
:08018000791700087917000847
:1001880010B5054C237833B9044B13B10448AFF3C9
:1001980000800123237010BD0C0000200000000027
:1001A800D417000808B5034B1BB103490348AFF344
:1001B800008008BD0000000010000020D4170008CF
:1001C80053B94AB9002908BF00281CBF4FF0FF31B6
:1001D8004FF0FF3000F074B9ADF1080C6DE904CEB2
:1001E80000F006F8DDF804E0DDE9022304B070470A
:1001F8002DE9F047089D04468E46002B4DD18A42D2
:10020800944669D9B2FA82F252B101FA02F3C2F104
:10021800200120FA01F10CFA02FC41EA030E944095
:100228004FEA1C48210CBEFBF8F61FFA8CF708FBB6
:1002380016E341EA034306FB07F199420AD91CEB8E
:10024800030306F1FF3080F01F81994240F21C81C0
:10025800023E63445B1AA4B2B3FBF8F008FB103308
:1002680044EA034400FB07F7A7420AD91CEB04043D
:1002780000F1FF3380F00A81A74240F2078164440D
:10028800023840EA0640E41B00261DB1D440002392
:10029800C5E900433146BDE8F0878B4209D9002DF6
:1002A80000F0EF800026C5E9000130463146BDE880
:1002B800F087B3FA83F6002E4AD18B4202D38242EA
:1002C80000F2F980841A61EB030301209E46002D99
:1002D800E0D0C5E9004EDDE702B9FFDEB2FA82F2EE
:1002E800002A40F09280A1EB0C014FEA1C471FFA4C
:1002F8008CFE0126200CB1FBF7F307FB131140EA33
:1003080001410EFB03F0884208D91CEB010103F1FF
:10031800FF3802D2884200F2CB804346091AA4B2C1
:10032800B1FBF7F007FB101144EA01440EFB00FE95
:10033800A64508D91CEB040400F1FF3102D2A645FA
:1003480000F2BB800846A4EB0E0440EA03409CE799
:10035800C6F12007B34022FA07FC4CEA030C20FA46
:1003680007F401FA06F31C43F9404FEA1C4900FA66
:1003780006F3B1FBF9F8200C1FFA8CFE09FB1811E3
:1003880040EA014108FB0EF0884202FA06F20BD956
:100398001CEB010108F1FF3A80F08880884240F2A6
:1003A8008580A8F102086144091AA4B2B1FBF9F0EA
:1003B80009FB101144EA014100FB0EFE8E4508D9E5
:1003C8001CEB010100F1FF346CD28E456AD902386A
:1003D800614440EA0840A0FB0294A1EB0E01A1424F
:1003E800C846A64656D353D05DB1B3EB080261EBBD
:1003F8000E0101FA07F722FA06F3F1401F43C5E997
:10040800007100263146BDE8F087C2F12003D840CC
:100418000CFA02FC21FA03F3914001434FEA1C470E
:100428001FFA8CFEB3FBF7F007FB10360B0C43EA00
:10043800064300FB0EF69E4204FA02F408D91CEBB0
:10044800030300F1FF382FD29E422DD902386344AE
:100458009B1B89B2B3FBF7F607FB163341EA03414E
:1004680006FB0EF38B4208D91CEB010106F1FF389D
:1004780016D28B4214D9023E6144C91A46EA004694
:1004880038E72E46284605E70646E3E61846F8E626
:100498004B45A9D2B9EB020864EB0C0E0138A3E76F
:1004A8004646EAE7204694E74046D1E7D0467BE750
:1004B800023B614432E7304609E76444023842E7C8
:1004C800704700BF30B58BB000240594069407949C
:1004D800089409940094234B1A6B42F004021A639F
:1004E8001A6B02F004020092009A01941A6B42F00F
:1004F80080021A631A6B02F080020192019A029438
:100508001A6B42F001021A631A6B02F0010202929E
:10051800029A03941A6B42F010021A631A6B02F0E3
:1005280010020392039A04941A6B42F002021A63AF
:100538001B6B03F002030493049B0B4D22464FF4FC
:100548006041284600F058FD4FF4604305930123AD
:1005580006930794089405A9284600F05BFC0BB0A5
:1005680030BD00BF003802400010024072B6FEE7FE
:1005780010B51448144B0360144B00221A708021E4
:100588005970E1219970DA701A715A7143604FF409
:10059800000383600E4BC3600E4B036140F2F453BB
:1005A800436100F0C3FF58B90B4C382200212046A4
:1005B80001F004F9212323604FF44003636110BD67
:1005C800FFF7D4FFA8010020008002406801002046
:1005D800C8000020280000207001002000B595B058
:1005E8003022002108A801F0E9F8002303930493BE
:1005F8000593069307930193204A116C41F08051AB
:100608001164126C02F080520192019A02931C4B01
:100618001A6842F480421A601B6803F4804302930C
:10062800029B012308934FF48033099302230E930E
:100638004FF480020F92192210924FF4A87211926F
:1006480012930423139308A800F0E6F888B90F233F
:10065800039302230493002305934FF4A0530693B6
:100668000793052103A800F025FB20B915B05DF814
:1006780004FBFFF77BFFFFF779FF00BF003802405C
:100688000070004008B500F04FFDFFF7A7FFFFF727
:1006980019FFFFF76DFFFEE7FEE7FEE7FEE7FEE75F
:1006A800FEE770477047704708B500F057FD08BD72
:1006B80008B5024800F0A0FF08BD00BFA80100204F
:1006C80008B5024800F098FF08BD00BFA801002047
:1006D80082B0002100910B4B5A6C42F480425A645C
:1006E8005A6C02F480420092009A01911A6C42F00E
:1006F80080521A641B6C03F080530193019B02B073
:10070800704700BF00380240F0B58DB00023079352
:10071800089309930A930B9302683B4B9A4201D0C2
:100728000DB0F0BD00240194A3F590431A6B42F07C
:1007380000721A631A6B02F000720192019A029415
:100748001A6B42F080621A631A6B02F0806202929E
:10075800029A03941A6B42F000621A631A6B02F051
:1007680000620392039A04941A6B42F004021A631B
:100778001A6B02F004020492049A05941A6B42F070
:1007880001021A631A6B02F001020592059A069497
:100798001A6B42F002021A631B6B03F00203069302
:1007A800069B322307930227089703260A960B25F0
:1007B8000B9507A9154800F02DFB8623079308978A
:1007C80009940A960B9507A9114800F023FB4FF4EA
:1007D80060530793089709940A960B9507A90D4843
:1007E80000F018FB224621463D2000F01DFC3D206C
:1007F80000F052FC224621463E2000F015FC3E2027
:1008080000F04AFC8CE700BF00800240000802406C
:100818000000024000040240002800F0E08170B5AA
:1008280082B00446036813F0010F3BD09F4B9B68CE
:1008380003F00C03042B2CD09C4B9B6803F00C0397
:10084800082B21D06368B3F5803F4FD0B3F5A02FB4
:1008580052D0964B1A6822F480321A601A6822F431
:1008680080221A606368002B50D000F083FC054694
:100878008E4B1B6813F4003F14D100F07BFC401B27
:100888006428F5D90320B1E1884B5B6813F4800F25
:10089800D8D0864B1B6813F4003F03D06368002B45
:1008A80000F09F81236813F0020F54D07F4B9B68A0
:1008B80013F00C0F3ED07D4B9B6803F00C03082B04
:1008C80033D0E368002B68D0794B01221A6000F01E
:1008D80051FC0546754B1B6813F0020F54D100F00C
:1008E80049FC401B0228F5D903207FE16F4A1368B1
:1008F80043F480331360B5E76C4B1A6842F48022E6
:100908001A601A6842F480321A60ABE700F032FCD1
:100918000546664B1B6813F4003FC3D000F02AFC61
:10092800401B6428F5D9032060E1604B5B6813F431
:10093800800FC6D15D4B1B6813F0020F03D0E3682C
:10094800012B40F05081594A136823F0F8032169BC
:1009580043EAC1031360236813F0080F42D06369A8
:100968006BB3534B0122C3F8802E00F003FC0546FD
:100978004E4B5B6F13F0020F34D100F0FBFB401BB2
:100988000228F5D9032031E1484A136823F0F80317
:10099800216943EAC1031360DDE7454B00221A6071
:1009A80000F0E8FB0546414B1B6813F0020FD2D05C
:1009B80000F0E0FB401B0228F5D9032016E13C4B70
:1009C8000022C3F8802E00F0D5FB0546374B5B6F3D
:1009D80013F0020F06D000F0CDFB401B0228F5D91A
:1009E800032003E1236813F0040F77D02F4B1B6C0F
:1009F80013F0805F33D1002301932C4B1A6C42F023
:100A080080521A641B6C03F080530193019B0125EB
:100A1800284B1B6813F4807F23D0A368012B34D0A4
:100A2800052B38D0214B1A6F22F001021A671A6F72
:100A380022F004021A67A368002B3DD000F09AFB4D
:100A480006461A4B1B6F13F0020F46D100F092FBBB
:100A5800801B41F288339842F3D90320C6E0002571
:100A6800D6E7144A136843F48073136000F082FBDE
:100A78000646104B1B6813F4807FCED100F07AFB3A
:100A8800801B0228F5D90320B0E0084A136F43F011
:100A980001031367CFE7054B1A6F42F004021A6788
:100AA8001A6F42F001021A67C5E700BF003802401A
:100AB800000047420070004000F05CFB0646524BC5
:100AC8001B6F13F0020F08D000F054FB801B41F29B
:100AD80088339842F3D9032088E0EDB9A369002B45
:100AE80000F08380484A926802F00C02082A51D02C
:100AF800022B17D0454B00221A6600F03BFB044638
:100B0800414B1B6813F0007F42D000F033FB001B01
:100B18000228F5D9032069E03B4A136C23F080537F
:100B28001364DBE7394B00221A6600F023FB054605
:100B3800354B1B6813F0007F06D000F01BFB401BF1
:100B48000228F5D9032051E0E369226A1343626A57
:100B580043EA8213A26A5208013A43EA0243E26A6C
:100B680043EA0263284A5360284B01221A6600F0C0
:100B780001FB0446244B1B6813F0007F06D100F0EC
:100B8800F9FA001B0228F5D903202FE000202DE0F8
:100B980000202BE0012B2BD01B4B5B6803F480015A
:100BA800E269914226D103F03F02216A8A4223D1A9
:100BB800616A47F6C0721A40B2EB811F1ED103F476
:100BC8004031A26A5208013AB1EB024F18D103F042
:100BD8007063E26AB3EB026F14D1002006E00120D3
:100BE8007047012002E0012000E0002002B070BD43
:100BF8000120FBE70120F9E70120F7E70120F5E7ED
:100C08000120F3E70120F1E70038024000004742E5
:100C180008B5254B9B6803F00C03042B3FD0082B29
:100C28003FD1214B5A6802F03F025B6813F4800FF2
:100C380012D01D4B5968C1F388111C480023A1FB31
:100C48000001FFF7BDFA184B5B68C3F3014301339A
:100C58005B00B0FBF3F025E0134B5968C1F3881C27
:100C68004FEA4C11B1EB0C006EEB0E0E4FEA8E13EF
:100C780043EA90638101091A63EB0E03DB0043EA40
:100C88005173C90011EB0C0C43F1000399020023C6
:100C98004FEA8C2041EA9C51FFF792FAD3E70348C8
:100CA80000E0034808BD00BF0038024040787D01DD
:100CB8000024F400002800F09B8070B50D4604461F
:100CC8004F4B1B6803F007038B4208D2CBB24C4A48
:100CD8001370136803F007038B4240F08B8023687E
:100CE80013F0020F17D013F0040F04D0454A93688D
:100CF80043F4E0539360236813F0080F04D0414A8B
:100D0800936843F4604393603E4A936823F0F0038A
:100D1800A1680B439360236813F0010F32D0636816
:100D2800012B21D09A1E012A25D9364A126812F0C1
:100D3800020F61D033498A6822F0030213438B60A3
:100D480000F018FA06462F4B9B6803F00C03626804
:100D5800B3EB820F16D000F00DFA801B41F28833F6
:100D68009842F0D9032042E0264A126812F4003F64
:100D7800E0D101203BE0234A126812F0007FD9D16C
:100D8800012034E01E4B1B6803F00703AB4207D970
:100D9800EAB21B4B1A701B6803F00703AB422DD154
:100DA800236813F0040F06D0164A936823F4E0531F
:100DB800E1680B439360236813F0080F07D0114ACA
:100DC800936823F46043216943EAC1039360FFF702
:100DD8001FFF0C4B9B68C3F303130B4AD35CD8402B
:100DE8000A4B18600A4B186800F078F9002070BDAB
:100DF800012070470120FAE70120F8E70120F6E713
:100E0800003C024000380240EC17000808000020AF
:100E18000400002000230F2B00F2E48070B582B09C
:100E280060E085685E000324B44025EA0405CC68C8
:100E3800B4402C438460456825EA02054C68C4F335
:100E480000129A402A4342605AE0DC08083450F8FD
:100E5800246003F0070295000F22AA4026EA020E3A
:100E68000A69AA4042EA0E0240F824205CE0072200
:100E780000E0002202FA0EF22A4302345A4D45F8E5
:100E880024205A4A94686FEA0C0224EA0C054E683A
:100E980016F4801F01D04CEA0405544CA560E468A0
:100EA80002EA04054E6816F4001F01D04CEA040556
:100EB8004E4CE560646802EA04054E6816F4003F8B
:100EC80001D04CEA0405494C6560246822404D680D
:100ED80015F4803F01D04CEA0402444C22600133EF
:100EE8000F2B7DD801229A400C6804EA020C32EAE2
:100EF8000404F4D14C6804F00304013C012C90D99B
:100F08004A6802F00302032A09D0C4685D0003227C
:100F1800AA4024EA02048A68AA402243C2604A68B6
:100F280002F00302022A90D004684FEA430E03221B
:100F380002FA0EF224EA02044A6802F0030202FAF4
:100F48000EF2224302604A6812F4403FC7D00022E2
:100F58000192274A546C44F480445464526C02F45D
:100F680080420192019A9C08A51C1F4A52F82550FC
:100F780003F003024FEA820E0F2202FA0EF225EA6C
:100F880002051C4A90423FF474AF02F58062904219
:100F98001AD002F58062904218D002F58062904221
:100FA80016D002F58062904214D002F58062904219
:100FB80012D002F58062904210D002F58062904211
:100FC8003FF455AF082255E7012253E7022251E7C3
:100FD80003224FE704224DE705224BE7062249E7A3
:100FE80002B070BD704700BF00380140003C0140AE
:100FF80000380240000002400AB1816170470904CC
:1010080081617047074AD36823F4E0631B041B0C13
:10101800000200F4E060034343F0BF6343F400338D
:10102800D360704700ED00E000B5194BDB68C3F3EF
:101038000223C3F1070CBCF1040F28BF4FF0040CC6
:1010480003F1040EBEF1060F18D9033B4FF0FF3E23
:101058000EFA0CFC21EA0C0199400EFA03F322EA7D
:101068000303194300280BDB0901C9B200F16040F2
:1010780000F5614080F800135DF804FB0023E5E704
:1010880000F00F000901C9B2024B1954F4E700BF80
:1010980000ED00E014ED00E0002807DB00F01F027F
:1010A800400901239340024A42F82030704700BFAC
:1010B80000E100E00138B0F1807F0BD24FF0E0236F
:1010C8005861054AF02182F8231000209861072210
:1010D8001A6170470120704700ED00E010B5044622
:1010E8000E4B18784FF47A73B3FBF0F30C4A106880
:1010F800B0FBF3F0FFF7DEFF68B90F2C01D9012030
:101108000AE0002221464FF0FF30FFF78DFF054B24
:101118001C60002000E0012010BD00BF000000207E
:10112800080000200400002008B50B4B1A6842F4A0
:1011380000721A601A6842F480621A601A6842F4EF
:1011480080721A600320FFF75DFF0F20FFF7C6FFCC
:10115800FFF7BEFA002008BD003C0240034A1168B0
:10116800034B1B780B441360704700BF58020020E4
:1011780000000020014B1868704700BF580200208B
:1011880038B50446FFF7F6FF0546B4F1FF3F02D035
:10119800044B1B781C44FFF7EDFF401BA042FAD319
:1011A80038BD00BF000000205079137943EA0023BE
:1011B80007480B50D07893781B0443EA00635078B3
:1011C80043EA002312781343024A8B50704700BF4A
:1011D800408002404480024030B4002208E0C468E5
:1011E800DC6051F80C3043F4400341F80C30013214
:1011F800032A1FD8C16802EB82034FEAC30C01EB34
:10120800C303002441F80C405C609C60DC60941DC2
:1012180040F8243051F80C4044F4801441F80C4054
:10122800022ADCD8541C04EB8404C56805EBC4040A
:10123800DC60D6E700238362C268036803F5805345
:101248001A6130BC704700B54FF0000E03E0026928
:10125800DA600EF1010EBEF1030F29D801690EEB19
:101268008E034FEAC30C01EBC303002241F80C20A4
:101278005A609A60DA601A625A624FF0004241F886
:101288000C2044F2F4525A605A6822F000425A6024
:101298000EF1120240F82230BEF1020FD7D80169D0
:1012A8000EF1010202EB820201EBC202DA60D0E722
:1012B8000023C36503668366C366836502690368A2
:1012C80003F58053DA605DF804FB000070B505464D
:1012D8000C46026813683B491940237C002B60D1F7
:1012E8004FF40003607C00285DD14FF48000034375
:1012F800A0680343E07F43EA004360690343A07F9B
:10130800002852D14FF400500343207F43EA0033B2
:10131800A0690343207943EA802394F82000002839
:1013280045D14FF400700343E07B43EAC013606A81
:10133800034394F8280043EA00130B4313602B6817
:101348001E680120FFF71CFF2B681E6029688A6948
:1013580022F0BE021204120CA36C1B0494F84C0079
:1013680038BB80200343206D034394F855000128BF
:1013780021D00020034394F8560001281DD00020F6
:10138800034394F85400012819D000200343134361
:101398008B612B689C690120FFF7F2FE2B689C612A
:1013A80070BD00239EE70020A1E70020ACE70020E5
:1013B800B9E70020D6E70820DCE70420E0E70220B0
:1013C800E4E700BF0F8120FF70B505460C460268B0
:1013D80002F580539B692B491940237B002B4DD183
:1013E8004FF08063607B43EA4063607F002847D109
:1013F8004FF480100343A07B43EA405360690343E2
:10140800207F43EAC013A07F43EA8013206A034386
:1014180094F8240043EA80030B4302F58052936159
:101428002B6803F580539E690120FFF7A9FE2B68FE
:1014380003F580539E612279A36843EA4263A26957
:1014480013432269134394F8252043EAC213A26A7E
:1014580043EA8203226813432A6843F4000302F52F
:10146800805213602B6803F580531C680120FFF736
:1014780087FE2B6803F580531C6070BD0023B1E71D
:101488000020B7E7233FDEF870B5A4B00646012573
:101498008DF83C508DF83D5000240D948DF84B404C
:1014A8008DF84A508DF848408DF830508DF84C40F2
:1014B8008DF83B4014948DF854401D948DF8784075
:1014C8001F948DF882408DF880404FF4804310932C
:1014D8004FF4006311938DF881400BA9FFF7F6FED6
:1014E8008DF80C508DF80D508DF81D508DF80E505C
:1014F80005948DF81C408DF81E4008948DF82450F2
:101508008DF804504FF4803302934FF48003069310
:101518004FF4005304938DF825500A9400946946BB
:101528003046FFF751FF24B070BD0000002857D0A7
:1015380030B583B00446D0F88430002B34D0002373
:101548000193284B5A6C42F480425A645B6C03F452
:1015580080430193019B244B5A6822F400025A608D
:101568005A68A1680A435A605B68236803F5805388
:101578001A6842F001021A60FFF7FCFD054623686D
:1015880003F580531B6813F0010F13D0FFF7F2FD2A
:10159800401BB0F5FA7FF2D90423C4F88830E02361
:1015A800C4F88430012019E02323C0F88430FFF701
:1015B800ABF8C4E72046FFF767FF2046FFF70CFEAD
:1015C8002046FFF740FE626800212046FFF7ECFD49
:1015D8000020C4F888001023C4F8843003B030BD5C
:1015E80001207047003802400038014070477047BA
:1015F800704770477047000010B50446036803F54C
:101608008052526912F0400F05D003F58052D2691A
:1016180012F0400F47D1236803F58052526912F047
:10162800010F05D003F58052D26912F0010F41D1A4
:10163800236803F58052526912F4004F28D003F54D
:101648008052D26912F4004F22D0D4F8882042F098
:101658000802C4F8882003F58052526912F4005F2A
:1016680031D003F580535A6922F07F4222F40102F7
:1016780022F45F4222F0FF02C4F88C20DA6922F4D7
:10168800C032DA61E023C4F884302046FFF7B0FFA7
:1016980023689A6B12F0080F1FD11A4B5B6913F479
:1016A800002F26D110BD03F58053174A5A61FFF762
:1016B8009EFFB0E703F580534FF001125A612046B0
:1016C800FFF794FFB4E703F580535A6948F2806145
:1016D8000A40C4F88C205961D7E7DB6A03F060033D
:1016E800C4F894302046FFF784FF0023C4F89430F0
:1016F800D3E7044B4FF400225A612046FFF77AFFE4
:10170800D0E700BF003C014040000100034AD2F886
:10171800883043F47003C2F88830704700ED00E069
:10172800DFF834D00D480E490E4A002302E0D458A1
:10173800C4500433C4188C42F9D30B4A0B4C002311
:1017480001E013600432A242FBD3FFF7DFFF00F091
:1017580011F8FEF797FF70470000022000000020F4
:101768000C0000200C1800080C0000205C0200206F
:10177800FEE7000070B50D4D0D4C641BA41000264B
:10178800A64209D10B4D0C4C00F020F8641BA410A4
:101798000026A64205D170BD55F8043B984701368E
:1017A800EEE755F8043B98470136F2E704180008BD
:1017B8000418000804180008081800080244034622
:1017C800934200D1704703F8011BF9E7F8B500BF51
:1017D800F8BC08BC9E467047F8B500BFF8BC08BC0A
:0417E8009E46704762
:1017EC0000000000000000000102030406070809C5
:0817FC00FCE9FF7F0100000081
:04180400AD0100082A
:04180800890100084A
:0C180C0001000000100000000024F400A7
:0400000508001729AF
:00000001FF
