:020000040800F2
:1000000000000220953C000845060008470600084D
:10001000490600084B0600084D06000800000000D5
:100020000000000000000000000000006126000841
:100030004F06000800000000B1260008C527000890
:10004000E53C0008E53C0008E53C0008E53C00080C
:10005000E53C0008E53C0008E53C0008E53C0008FC
:10006000E53C0008E53C0008E53C0008E53C0008EC
:10007000E53C0008E53C0008E53C0008E53C0008DC
:10008000E53C0008E53C0008E53C0008E53C0008CC
:1000900095060008E53C0008E53C0008510600080C
:1000A000E53C0008E53C0008E53C0008E53C0008AC
:1000B000E53C0008E53C0008E53C0008E53C00089C
:1000C000E53C0008E53C0008E53C0008E53C00088C
:1000D000E53C0008A5060008E53C0008B506000858
:1000E000E53C0008E53C0008E53C0008E53C00086C
:1000F000E53C0008E53C0008E53C0008E53C00085C
:10010000E53C0008E53C0008E53C0008E53C00084B
:10011000E53C0008E53C0008E53C0008E53C00083B
:10012000E53C0008E53C0008E53C0008E53C00082B
:10013000E53C0008E53C0008E53C0008E53C00081B
:10014000E53C0008E53C0008E53C0008E53C00080B
:10015000E53C0008E53C0008E53C0008E53C0008FB
:10016000E53C0008E53C0008E53C0008E53C0008EB
:10017000E53C0008E53C0008E53C00080000000004
:08018000E53C0008E53C000825
:1001900010B5054C237833B9044B13B10448AFF3C1
:1001A00000800123237010BD7800002000000000B3
:1001B0002846000808B5034B1BB103490348AFF3B9
:1001C000008008BD000000007C00002028460008D8
:1001D00001F0FF01102A2BDB10F0070F08D010F8F8
:1001E000013B013A8B422DD010F0070F42B3F6D1FC
:1001F000F0B441EA012141EA014122F007047FF015
:1002000000070023F0E80256083C85EA010586EA6B
:10021000010685FA47F5A3FA87F586FA47F6A5FAA7
:1002200087F68EB9EED1F0BC01F0FF0102F00702B3
:1002300032B110F8013B013A83EA010313B1F8D15E
:100240000020704701387047002D06BF354603383F
:10025000073815F0010F07D1013015F4807F02BF78
:10026000013015F4C03F0130F0BC0138704700BFC9
:1002700053B94AB9002908BF00281CBF4FF0FF310D
:100280004FF0FF3000F074B9ADF1080C6DE904CE09
:1002900000F006F8DDF804E0DDE9022304B0704761
:1002A0002DE9F047089D04468E46002B4DD18A4229
:1002B000944669D9B2FA82F252B101FA02F3C2F15C
:1002C000200120FA01F10CFA02FC41EA030E9440ED
:1002D0004FEA1C48210CBEFBF8F61FFA8CF708FB0E
:1002E00016E341EA034306FB07F199420AD91CEBE6
:1002F000030306F1FF3080F01F81994240F21C8118
:10030000023E63445B1AA4B2B3FBF8F008FB10335F
:1003100044EA034400FB07F7A7420AD91CEB040494
:1003200000F1FF3380F00A81A74240F20781644464
:10033000023840EA0640E41B00261DB1D4400023E9
:10034000C5E900433146BDE8F0878B4209D9002D4D
:1003500000F0EF800026C5E9000130463146BDE8D7
:10036000F087B3FA83F6002E4AD18B4202D3824241
:1003700000F2F980841A61EB030301209E46002DF0
:10038000E0D0C5E9004EDDE702B9FFDEB2FA82F245
:10039000002A40F09280A1EB0C014FEA1C471FFAA3
:1003A0008CFE0126200CB1FBF7F307FB131140EA8A
:1003B00001410EFB03F0884208D91CEB010103F157
:1003C000FF3802D2884200F2CB804346091AA4B219
:1003D000B1FBF7F007FB101144EA01440EFB00FEED
:1003E000A64508D91CEB040400F1FF3102D2A64552
:1003F00000F2BB800846A4EB0E0440EA03409CE7F1
:10040000C6F12007B34022FA07FC4CEA030C20FA9D
:1004100007F401FA06F31C43F9404FEA1C4900FABD
:1004200006F3B1FBF9F8200C1FFA8CFE09FB18113A
:1004300040EA014108FB0EF0884202FA06F20BD9AD
:100440001CEB010108F1FF3A80F08880884240F2FD
:100450008580A8F102086144091AA4B2B1FBF9F041
:1004600009FB101144EA014100FB0EFE8E4508D93C
:100470001CEB010100F1FF346CD28E456AD90238C1
:10048000614440EA0840A0FB0294A1EB0E01A142A6
:10049000C846A64656D353D05DB1B3EB080261EB14
:1004A0000E0101FA07F722FA06F3F1401F43C5E9EE
:1004B000007100263146BDE8F087C2F12003D84024
:1004C0000CFA02FC21FA03F3914001434FEA1C4766
:1004D0001FFA8CFEB3FBF7F007FB10360B0C43EA58
:1004E000064300FB0EF69E4204FA02F408D91CEB08
:1004F000030300F1FF382FD29E422DD90238634406
:100500009B1B89B2B3FBF7F607FB163341EA0341A5
:1005100006FB0EF38B4208D91CEB010106F1FF38F4
:1005200016D28B4214D9023E6144C91A46EA0046EB
:1005300038E72E46284605E70646E3E61846F8E67D
:100540004B45A9D2B9EB020864EB0C0E0138A3E7C6
:100550004646EAE7204694E74046D1E7D0467BE7A7
:10056000023B614432E7304609E76444023842E71F
:10057000704700BF08B500F07BF900F045FA00F0C5
:100580007FFA00F097FA174800F0BEF8164800F01E
:10059000FBF8164800F0F8F8154C012220212046FF
:1005A00001F073F9012001F0A1FA00222021204678
:1005B00001F06BF90F4B1A680F4B1B680F4CD21AE6
:1005C0000F49204603F0D0FB0E4A13680133136035
:1005D000642340222146054801F0F7FBC82002F0C1
:1005E0007BFFD9E7E0000020080100205001002037
:1005F00000000240DC000020980100209C00002048
:10060000404600089400002000B583B001F042FA93
:1006100000F0A6F9084B01930223009300234FF446
:1006200096720649064802F0D9FD03F02FF9002022
:1006300003B05DF804FB00BF98000020504600089E
:1006400075050008FEE7FEE7FEE7FEE7FEE77047F8
:1006500008B5402001F020F908BD0000402800D076
:10066000704708B5074B1A68074B1A6003E0054B43
:100670001A68064B1A604021054801F0FFF801286E
:10068000F5D008BD9C01002098010020DC0000206E
:100690000000024008B5024800F0B5FB08BD00BFED
:1006A000E000002008B5024801F082FC08BD00BF50
:1006B0000801002008B5024801F07AFC08BD00BF1F
:1006C0005001002000B583B0002200920D4B596C00
:1006D00041F480415964596C01F4804100910099C2
:1006E0000192196C41F0805119641B6C03F0805326
:1006F0000193019B0F216FF0010001F04BF903B052
:100700005DF804FB0038024010B588B00023039365
:1007100004930593069307930268194B9A4201D0FC
:1007200008B010BD0024019403F5EA331A6C42F0BE
:1007300000721A641A6C02F000720192019A02941B
:100740001A6B42F001021A631B6B03F00103029360
:10075000029B4FF4C0530393022304930323069395
:100760000923079303A9074800F096FF2246214674
:10077000142001F00FF9142001F044F9D0E700BF74
:10078000006400400000024010B58AB000230593C9
:1007900006930793089309930368304A934204D061
:1007A0002F4A93422DD00AB010BD002401942D4B46
:1007B0005A6C42F010025A645A6C02F01002019214
:1007C000019A02941A6B42F001021A631B6B03F048
:1007D00001030293029B4FF4C06305930223069327
:1007E000032308930723099305A91F4800F054FF2A
:1007F00022462146252001F0CDF8252001F002F9FE
:10080000D1E700240394174B1A6C42F480221A6437
:100810001A6C02F480220392039A04941A6B42F039
:1008200008021A631B6B03F008030493049B4FF444
:100830004073059302230693032308930723099328
:1008400005A90A4800F028FF22462146272001F08A
:10085000A1F8272001F0D6F8A5E700BF001001405D
:10086000004800400038024000000240000C0240F6
:1008700070B58AB0002405940694079408940994EE
:100880000094344B1A6B42F004021A631A6B02F0A4
:1008900004020092009A01941A6B42F080021A63DB
:1008A0001A6B02F080020192019A02941A6B42F0D4
:1008B00001021A631A6B02F001020292029A039477
:1008C0001A6B42F010021A631A6B02F010020392C4
:1008D000039A04941A6B42F002021A631B6B03F032
:1008E00002030493049B1C4D22464FF460412846AA
:1008F00000F0CBFF4FF46043059301260696079462
:10090000089405A9284600F0C7FEA5F580552246A3
:100910002021284600F0B9FF20230593069607946E
:10092000089405A9284600F0B7FE402305934FF42C
:1009300088130693079405A9284600F0ADFE2246C9
:100940002146172001F026F8172001F05BF80AB0C5
:1009500070BD00BF003802400010024072B6FEE7D2
:1009600000B595B03022002108A803F0F5F9002366
:10097000039304930593069307930193204A116C04
:1009800041F080511164126C02F080520192019A80
:1009900002931C4B1A6842F480421A601B6803F4ED
:1009A00080430293029B012308934FF48033099301
:1009B00002230E934FF480020F92192210924FF4EB
:1009C000A872119212930423139308A800F040FB1D
:1009D00088B90F23039302230493002305934FF454
:1009E000A05306930793052103A800F07FFD20B9CB
:1009F00015B05DF804FBFFF7B1FFFFF7AFFF00BFD5
:100A0000003802400070004010B58AB01A481B4BF5
:100A10000360102343604FF0804383600023C36072
:100A20004FF4003202614FF4401242610376437684
:100A30008376C3760377437700F056F8D0B9002366
:100A40000593069301220792009301930293039367
:100A5000049308920E230993074C6946204600F040
:100A6000E9F8204600F082F90221204600F0ACF9B6
:100A70000AB010BDFFF772FFE000002000640040E4
:100A800008B50A480A4B03604FF4E1334360002382
:100A90008360C36003610C2242618361C36101F022
:100AA00064F900B908BDFFF759FF00BF0801002035
:100AB0000010014008B50A480A4B03604FF4E133C7
:100AC000436000238360C36003610C224261836141
:100AD000C36101F04AF900B908BDFFF73FFF00BF4D
:100AE0005001002000480040002800F0A18038B5E7
:100AF000044690F82030D3B12268136843F0010314
:100B0000136000F0EDFF054623685A6812F0010FEC
:100B100010D100F0E5FF401B0A28F5D9636A43F4C1
:100B200000336362052384F82030012038BDFFF7CD
:100B3000EBFDE1E71A6822F002021A6000F0D0FF34
:100B4000054623685A6812F0020F0DD000F0C8FF66
:100B5000401B0A28F5D9636A43F400336362052316
:100B600084F820300120E1E7227E012A3DD01A6876
:100B700022F080021A60637E012B3BD0226813684A
:100B800023F040031360A37E012B39D02268136841
:100B900023F020031360E37E012B37D02268136813
:100BA00043F010031360237F012B35D022681368B4
:100BB00023F008031360637F012B33D0226813688E
:100BC00023F004031360A368E2681343226913430C
:100BD000626913436268013A21681343CB610020C4
:100BE0006062012384F82030A0E71A6842F0800296
:100BF0001A60C0E72268136843F040031360C2E73D
:100C00002268136843F020031360C4E72268136866
:100C100023F010031360C6E72268136843F008034B
:100C20001360C8E72268136843F004031360CAE73F
:100C30000120704790F82030013BDBB2012B05D931
:100C4000436A43F4802343620120704730B5464B2A
:100C5000D3F8002242F00102C3F80022D3F80022A8
:100C600022F47C52C3F80022D3F80022486A42EAF8
:100C70000022C3F800224A6902F01F02012000FA94
:100C800002F2D3F81C026FEA020C20EA0200C3F859
:100C90001C02CB69C3B9344BD3F80C020CEA000038
:100CA000C3F80C028C884869CD6844EA0544483092
:100CB00043F830408C68088840EA04404C6904F1ED
:100CC000480E03EBCE035860CB69012B1ED08B6915
:100CD000002B33D12448D0F804320CEA0303C0F8C7
:100CE00004320B698BBB2048D0F814320CEA0303A2
:100CF000C0F814320B6A012B2ED01B4AD2F80032F6
:100D000023F00103C2F80032002030BD164BD3F8A7
:100D10000C021043C3F80C028C8848690D6844EA41
:100D20000544483043F8304088894C698D6840EA72
:100D30000540483403EBC4035860C8E70A48D0F8BC
:100D400004321343C0F80432CBE70748D0F814321A
:100D50001343C0F81432CDE70349D1F81C321A43CB
:100D6000C1F81C22C9E700BF0064004070B504460A
:100D700090F82050EDB2012D06D0436A43F40023D1
:100D800043620125284670BD022380F820300268A6
:100D9000136823F00103136000F0A2FE06462368E7
:100DA0005B6813F0010F0CD000F09AFE831B0A2B36
:100DB000F5D9636A43F400336362052384F8203075
:100DC000E0E700256562DDE790F82030013BDBB20B
:100DD000012B05D9436A43F4802343620120704705
:100DE000026853691943516100207047704770478A
:100DF000704770477047704770477047704770473B
:100E00007047704770472DE9F84F054603685C69E5
:100E1000D3F804809F68D3F80CB0D3F810A0D3F8AF
:100E2000189014F001063BD017F0010616D00122ED
:100E30009A6017F0020F08D117F0040F0CD117F0C9
:100E4000080606D04FF4805608E0FFF7CFFF0026D3
:100E500004E0FFF7CEFF01E04FF4006617F4807F57
:100E60000DD02B684FF480729A6017F4007F40F029
:100E7000868017F4806F00F0868046F4005617F4E1
:100E8000803F0DD02B684FF480329A6017F4003FFA
:100E900040F0838017F4802F00F0838046F40046F2
:100EA00014F0080F07D01BF0100F04D046F40076A2
:100EB0002B681022DA6014F0040F02D01BF0080F28
:100EC00079D114F0020F04D02B68DB6813F0030F04
:100ED00078D114F0400F07D01AF0100F04D046F468
:100EE00080662B6810221A6114F0200F02D01AF0CD
:100EF000080F6BD114F0100F04D02B681B6913F08E
:100F0000030F6AD114F4003F02D018F0100F68D11B
:100F100014F4803F02D018F0080F69D114F4004F88
:100F20007AD018F0040F74D014F4807F04D019F034
:100F3000010F01D046F0010614F4007F04D019F02F
:100F4000020F01D046F0020614F4806F04D019F0AD
:100F5000040F01D046F0040614F4006F59D019F0C4
:100F6000700956D0B9F1400F65D058D8B9F1200FAB
:100F70005ED0B9F1300F42D146F0200644E0284659
:100F8000FFF735FF7BE717F4006F02D046F4804689
:100F900075E72846FFF72EFF71E72846FFF728FF81
:100FA0007EE717F4002F02D046F4803678E7284613
:100FB000FFF721FF74E72B680822DA602846FFF765
:100FC0001CFF7EE72846FFF717FF82E72B68082201
:100FD0001A612846FFF713FF8CE72846FFF70EFF3C
:100FE00090E72B6810225A602846FFF709FF8FE729
:100FF0002B6808225A602846FFF703FF8EE7B9F1F5
:10100000100F01D146F008062A68936923F0700397
:1010100093612B6804225A609EB9BDE8F88FB9F13C
:10102000500F0BD0B9F1600FEED146F48076EBE7AC
:1010300046F01006E8E746F04006E5E746F0800691
:10104000E2E76B6A1E436E622846FFF7DBFEE4E7C9
:10105000002800F0E08170B582B00446036813F008
:10106000010F3BD09F4B9B6803F00C03042B2CD04B
:101070009C4B9B6803F00C03082B21D06368B3F5ED
:10108000803F4FD0B3F5A02F52D0964B1A6822F470
:1010900080321A601A6822F480221A606368002B7A
:1010A00050D000F01DFD05468E4B1B6813F4003F29
:1010B00014D100F015FD401B6428F5D90320B1E1DF
:1010C000884B5B6813F4800FD8D0864B1B6813F4F1
:1010D000003F03D06368002B00F09F81236813F06A
:1010E000020F54D07F4B9B6813F00C0F3ED07D4B0A
:1010F0009B6803F00C03082B33D0E368002B68D007
:10110000794B01221A6000F0EBFC0546754B1B6819
:1011100013F0020F54D100F0E3FC401B0228F5D974
:1011200003207FE16F4A136843F480331360B5E70F
:101130006C4B1A6842F480221A601A6842F48032BA
:101140001A60ABE700F0CCFC0546664B1B6813F455
:10115000003FC3D000F0C4FC401B6428F5D9032035
:1011600060E1604B5B6813F4800FC6D15D4B1B6878
:1011700013F0020F03D0E368012B40F05081594A6D
:10118000136823F0F803216943EAC103136023685D
:1011900013F0080F42D063696BB3534B0122C3F8BD
:1011A000802E00F09DFC05464E4B5B6F13F0020F46
:1011B00034D100F095FC401B0228F5D9032031E121
:1011C000484A136823F0F803216943EAC103136016
:1011D000DDE7454B00221A6000F082FC0546414BDA
:1011E0001B6813F0020FD2D000F07AFC401B0228DB
:1011F000F5D9032016E13C4B0022C3F8802E00F005
:101200006FFC0546374B5B6F13F0020F06D000F002
:1012100067FC401B0228F5D9032003E1236813F083
:10122000040F77D02F4B1B6C13F0805F33D100235A
:1012300001932C4B1A6C42F080521A641B6C03F021
:1012400080530193019B0125284B1B6813F4807F79
:1012500023D0A368012B34D0052B38D0214B1A6F33
:1012600022F001021A671A6F22F004021A67A368BB
:10127000002B3DD000F034FC06461A4B1B6F13F0D8
:10128000020F46D100F02CFC801B41F288339842BB
:10129000F3D90320C6E00025D6E7144A136843F4C7
:1012A0008073136000F01CFC0646104B1B6813F49F
:1012B000807FCED100F014FC801B0228F5D90320DA
:1012C000B0E0084A136F43F001031367CFE7054B03
:1012D0001A6F42F004021A671A6F42F001021A678D
:1012E000C5E700BF003802400000474200700040E0
:1012F00000F0F6FB0646524B1B6F13F0020F08D0AE
:1013000000F0EEFB801B41F288339842F3D90320B2
:1013100088E0EDB9A369002B00F08380484A926809
:1013200002F00C02082A51D0022B17D0454B0022A4
:101330001A6600F0D5FB0446414B1B6813F0007F92
:1013400042D000F0CDFB001B0228F5D9032069E054
:101350003B4A136C23F080531364DBE7394B0022C4
:101360001A6600F0BDFB0546354B1B6813F0007F85
:1013700006D000F0B5FB401B0228F5D9032051E050
:10138000E369226A1343626A43EA8213A26A52083B
:10139000013A43EA0243E26A43EA0263284A53609D
:1013A000284B01221A6600F09BFB0446244B1B6865
:1013B00013F0007F06D100F093FB001B0228F5D943
:1013C00003202FE000202DE000202BE0012B2BD06C
:1013D0001B4B5B6803F48001E269914226D103F064
:1013E0003F02216A8A4223D1616A47F6C0721A40DD
:1013F000B2EB811F1ED103F44031A26A5208013AB8
:10140000B1EB024F18D103F07063E26AB3EB026FE5
:1014100014D1002006E001207047012002E00120E5
:1014200000E0002002B070BD0120FBE70120F9E7D9
:101430000120F7E70120F5E70120F3E70120F1E7BC
:10144000003802400000474208B5254B9B6803F076
:101450000C03042B3FD0082B3FD1214B5A6802F0DC
:101460003F025B6813F4800F12D01D4B5968C1F323
:1014700088111C480023A1FB0001FEF7F9FE184B60
:101480005B68C3F3014301335B00B0FBF3F025E07D
:10149000134B5968C1F3881C4FEA4C11B1EB0C0097
:1014A0006EEB0E0E4FEA8E1343EA90638101091A28
:1014B00063EB0E03DB0043EA5173C90011EB0C0C24
:1014C00043F10003990200234FEA8C2041EA9C512A
:1014D000FEF7CEFED3E7034800E0034808BD00BF97
:1014E0000038024040787D010024F400002800F01C
:1014F0009B8070B50D4604464F4B1B6803F00703F5
:101500008B4208D2CBB24C4A1370136803F0070326
:101510008B4240F08B80236813F0020F17D013F03A
:10152000040F04D0454A936843F4E0539360236862
:1015300013F0080F04D0414A936843F4604393606A
:101540003E4A936823F0F003A1680B43936023683D
:1015500013F0010F32D06368012B21D09A1E012AAB
:1015600025D9364A126812F0020F61D033498A68D1
:1015700022F0030213438B6000F0B2FA06462F4BB1
:101580009B6803F00C036268B3EB820F16D000F087
:10159000A7FA801B41F288339842F0D9032042E039
:1015A000264A126812F4003FE0D101203BE0234AB2
:1015B000126812F0007FD9D1012034E01E4B1B6865
:1015C00003F00703AB4207D9EAB21B4B1A701B6842
:1015D00003F00703AB422DD1236813F0040F06D0AC
:1015E000164A936823F4E053E1680B439360236841
:1015F00013F0080F07D0114A936823F46043216960
:1016000043EAC1039360FFF71FFF0C4B9B68C3F3D2
:1016100003130B4AD35CD8400A4B18600A4B186876
:1016200000F012FA002070BD012070470120FAE797
:101630000120F8E70120F6E7003C024000380240B4
:101640005C4600080800002004000020014B1868D8
:10165000704700BF0800002008B5FFF7F7FF044BF4
:101660009B68C3F38223034AD35CD84008BD00BF04
:10167000003802406C46000808B5FFF7E7FF044B4E
:101680009B68C3F34233034AD35CD84008BD00BF14
:10169000003802406C46000800230F2B00F2E48063
:1016A00070B582B060E085685E000324B44025EA2E
:1016B0000405CC68B4402C438460456825EA0205E3
:1016C0004C68C4F300129A402A4342605AE0DC0896
:1016D000083450F8246003F0070295000F22AA4056
:1016E00026EA020E0A69AA4042EA0E0240F82420C5
:1016F0005CE0072200E0002202FA0EF22A430234E4
:101700005A4D45F824205A4A94686FEA0C0224EA9C
:101710000C054E6816F4801F01D04CEA0405544CA9
:10172000A560E46802EA04054E6816F4001F01D0C3
:101730004CEA04054E4CE560646802EA04054E6814
:1017400016F4003F01D04CEA0405494C656024685A
:1017500022404D6815F4803F01D04CEA0402444C0D
:10176000226001330F2B7DD801229A400C6804EAD5
:10177000020C32EA0404F4D14C6804F00304013C86
:10178000012C90D94A6802F00302032A09D0C468E8
:101790005D000322AA4024EA02048A68AA40224388
:1017A000C2604A6802F00302022A90D004684FEA3D
:1017B000430E032202FA0EF224EA02044A6802F0FF
:1017C000030202FA0EF2224302604A6812F4403F1A
:1017D000C7D000220192274A546C44F480445464D8
:1017E000526C02F480420192019A9C08A51C1F4A87
:1017F00052F8255003F003024FEA820E0F2202FA3C
:101800000EF225EA02051C4A90423FF474AF02F53D
:10181000806290421AD002F58062904218D002F5A0
:101820008062904216D002F58062904214D002F598
:101830008062904212D002F58062904210D002F590
:10184000806290423FF455AF082255E7012253E7EA
:10185000022251E703224FE704224DE705224BE71E
:10186000062249E702B070BD704700BF0038014052
:10187000003C014000380240000002400369194268
:1018800001D001207047002070470AB18161704784
:10189000090481617047000008B5054B5B6903428C
:1018A00000D108BD024B5861FEF7D8FEF9E700BF32
:1018B000003C014070B50446866D00F011F994F8C3
:1018C0003530DBB2022B06D080236365002384F819
:1018D0003430012070BD05462268136823F01603DA
:1018E00013602268536923F080035361236CE3B1D2
:1018F0002268136823F0080313602268136823F03A
:101900000103136023681B6813F0010F11D000F06E
:10191000E7F8431B052BF5D920236365032084F8E2
:101920003500002384F83430D4E7A36C002BDFD1DA
:10193000E3E7E26D3F239340B360012384F8353041
:10194000002084F83400C5E790F83530DBB2022B74
:1019500003D08023436501207047052380F835308C
:101960000268136823F00103136000207047000031
:10197000074AD36823F4E0631B041B0C000200F445
:10198000E060034343F0BF6343F40033D360704728
:1019900000ED00E000B5194BDB68C3F30223C3F18F
:1019A000070CBCF1040F28BF4FF0040C03F1040E28
:1019B000BEF1060F18D9033B4FF0FF3E0EFA0CFCA8
:1019C00021EA0C0199400EFA03F322EA03031943BA
:1019D00000280BDB0901C9B200F1604000F561404D
:1019E00080F800135DF804FB0023E5E700F00F002A
:1019F0000901C9B2024B1954F4E700BF00ED00E041
:101A000014ED00E0002807DB00F01F02400901236D
:101A10009340024A42F82030704700BF00E100E0E6
:101A20000138B0F1807F0BD24FF0E0235861054AB6
:101A3000F02182F823100020986107221A61704774
:101A40000120704700ED00E010B504460E4B1878F9
:101A50004FF47A73B3FBF0F30C4A1068B0FBF3F069
:101A6000FFF7DEFF68B90F2C01D901200AE0002240
:101A700021464FF0FF30FFF78DFF054B1C60002023
:101A800000E0012010BD00BF000000200800002081
:101A90000400002008B50B4B1A6842F400721A606B
:101AA0001A6842F480621A601A6842F480721A60FE
:101AB0000320FFF75DFF0F20FFF7C6FFFEF702FED2
:101AC000002008BD003C0240034A1168034B1B780C
:101AD0000B441360704700BF9C01002000000020F1
:101AE000014B1868704700BF9C01002038B50446C0
:101AF000FFF7F6FF0546B4F1FF3F02D0044B1B7819
:101B00001C44FFF7EDFF401BA042FAD338BD00BFD5
:101B100000000020026802F10C0353E8003F23F4A8
:101B200090730C3242E800310029F3D1026802F1CF
:101B3000140353E8003F23F00103143242E800315C
:101B40000029F3D1036B012B05D0202380F842300C
:101B5000002303637047026802F10C0353E8003F5F
:101B600023F010030C3242E800310029F3D1ECE7F6
:101B700090F84130DBB2212B01D0022070478368FE
:101B8000B3F5805F17D0036A5A1C02621A780368A3
:101B90005A60C38C9BB2013B9BB2C3844BB90268B1
:101BA000D36823F08003D3600268D36843F0400316
:101BB000D360002070470369002BE4D1036A1B88BF
:101BC0000268C3F308035360036A02330362E0E769
:101BD00038B504460268136923F44053C1680B43C7
:101BE000136183680269134342691343C2691A434C
:101BF0000168CB6823F4164323F00C031343CB6036
:101C00000268536923F4407381690B43536103688D
:101C1000314A934206D002F58062934202D0FFF728
:101C20001BFD01E0FFF728FDE369B3F5004F29D064
:101C30000021031849411B1841F10001C90041EA84
:101C40005371DB00181863684FEA83024FEA9373FD
:101C500041F10001FEF70CFB204DA5FB00325109BC
:101C6000642303FB11031B013233A5FB03235B0930
:101C700003F0F00202EB011203F00F03216813449A
:101C80008B6038BD0023021843EB0301121841F1A9
:101C90000001C90041EA5271D200101841F100015F
:101CA000626892185B41FEF7E3FA0C4DA5FB003227
:101CB0005109642303FB1103DB003233A5FB03232B
:101CC0005B095A0002F4F87202EB011203F00703F9
:101CD000216813448B60D4E7001001401F85EB514D
:101CE0002DE9F04383B005460E4617469946DDF8C8
:101CF00028802C68246836EA04030CBF4FF0010CDE
:101D00004FF0000CBC4528D1B8F1FF3FF1D0FFF7F0
:101D1000E7FEA0EB0900404523D8B8F1000F22D020
:101D20002B68DA6812F0040FE3D0802EE1D0402E49
:101D3000DFD01A6812F0080FDBD0002401941A6873
:101D400001925B680193019B2846FFF7E3FE08239D
:101D50006B6485F84040012000E0002003B0BDE83E
:101D6000F0830320FAE70320F8E760B310B50446D8
:101D700090F8413013B3242384F841302268D368AB
:101D800023F40053D3602046FFF722FF2268136933
:101D900023F4904313612268536923F02A035361AB
:101DA0002268D36843F40053D3600020606420238A
:101DB00084F8413084F84230606310BD80F84030D0
:101DC000FEF7E2FCD7E7012070472DE9F04182B031
:101DD0001E4690F84130DBB2202B56D104460D460A
:101DE0009046002955D00AB901204FE000234364F2
:101DF000212380F84130FFF773FE0746A4F82480C2
:101E0000A4F82680A368B3F5805F02D04FF00008E5
:101E100014E023692BB34FF000080FE0202384F86F
:101E20004130032032E038F8023B2268C3F3080354
:101E30005360E28C92B2013A92B2E284E38C9BB29C
:101E400093B100963B46002280212046FFF748FFD1
:101E50000028E3D1002DE6D015F8012B23685A6045
:101E6000E7E7A8460025E9E700963B460022402127
:101E70002046FFF735FF18B9202384F8413005E0EC
:101E8000202384F84130032000E0022002B0BDE8A6
:101E9000F0810120FAE7704708B50168CA6822F0AE
:101EA0004002CA60202280F84120FFF7F4FF0020A2
:101EB00008BD7047704708B5806B0023C385C38495
:101EC000FFF7F8FF08BD704790F84230DBB2222BD5
:101ED00069D18368B3F5805F4FD0826AB3F5805FC4
:101EE00004D0002B56D10369002B53D103685B68E3
:101EF0001370836A01338362C38D9BB2013B9BB233
:101F0000C385002B51D100B583B00268D36823F09C
:101F10002003D3600268D36823F48073D36002681F
:101F2000536923F001035361202380F842300023DA
:101F30004363036B012B33D100230363026802F177
:101F40000C0353E8003F23F010030C3242E8003149
:101F50000029F3D103681A6812F0100F06D000228E
:101F600001921A6801925B680193019B818DFFF7D2
:101F7000AAFF002003B05DF804FB0269002AACD17F
:101F8000826A03685B68C3F308031380836A0233C1
:101F90008362B1E703685B6803F07F031370A8E70F
:101FA000FFF787FFE5E70220704700207047000039
:101FB00030B583B0044602681368D068516913F0E5
:101FC0000F0505D113F0200F02D010F0200F19D10A
:101FD0002DB111F0010119D110F4907F16D1216BB0
:101FE00001297DD013F0800F03D010F0800F40F056
:101FF000198113F0400F03D010F0400F40F016810C
:1020000003B030BD2046FFF75FFFF9E713F0010F83
:1020100006D010F4807F03D0626C42F0010262644B
:1020200013F0040F04D019B1626C42F00202626432
:1020300013F0020F04D019B1626C42F00402626422
:1020400013F0080F07D010F0200F00D119B1626C07
:1020500042F008026264626C002AD1D013F0200FB3
:1020600002D010F0200F29D123685B6903F04003F0
:10207000626C12F0080F00D163B32046FFF74AFDEF
:1020800023685B6913F0400F20D0226802F114032B
:1020900053E8003F23F04003143242E800310029A6
:1020A000F3D1E36B73B1634A1A65E06BFFF74CFC45
:1020B0000028A5D0E06B036D9847A1E72046FFF705
:1020C00003FFD1E72046FFF7F5FE99E72046FFF72B
:1020D000F1FE95E72046FFF7EDFE002363648FE7EE
:1020E00013F0100F3FF47EAF10F0100F3FF47AAFF3
:1020F000002301931368019353680193019B536973
:1021000013F0400F52D0E26B13685B689BB2002B58
:102110003FF476AFA18D99427FF672AFE385D36924
:10212000B3F5807F37D0226802F10C0353E8003FFB
:1021300023F480730C3242E800310029F3D1226885
:1021400002F1140353E8003F23F00103143242E884
:1021500000310029F3D1226802F1140353E8003F53
:1021600023F04003143242E800310029F3D1202348
:1021700084F8423000232363226802F10C0353E801
:10218000003F23F010030C3242E800310029F3D164
:10219000E06BFFF78FFB02236363A18DE38D9BB29E
:1021A000C91A89B22046FFF78EFE29E7A18DE38D7B
:1021B0009BB2C91A89B2E38D9BB2002B3FF420AFCA
:1021C00000293FF41DAF226802F10C0353E8003FE1
:1021D00023F490730C3242E800300028F3D12268D7
:1021E00002F1140353E8003F23F00103143242E8E4
:1021F00000300028F3D1202384F8423000232363E9
:10220000226802F10C0353E8003F23F010030C3264
:1022100042E800300028F3D1022363632046FFF731
:1022200052FEEDE62046FFF7A3FCE9E62046FFF765
:1022300033FEE5E6B71E0008034AD2F8883043F4BF
:102240007003C2F88830704700ED00E010B5034617
:102250000C4A0D490D48006840B10C480068034421
:10226000521A934206D8094A136010BD0748084C19
:102270000460F2E701F038FD0C2303604FF0FF30FB
:10228000F3E700BF0000022000400000A001002092
:10229000E01A0020104A12F0070F1AD0D11D21F0C9
:1022A0000701C1F5805313440A460C48026000211F
:1022B00041601344083B23F0070309480360596059
:1022C0001960991A51601360064B1960064B19602A
:1022D00070474FF48053E8E7A8010020B8110020B0
:1022E000A4010020AC110020A81100201F4B1946AA
:1022F0001B688342FBD31D4A91420FD01C4A914276
:1023000003D302F6FF72914208D94FF0F00383F332
:102310001188BFF36F8FBFF34F8FFEE74A6801EB61
:10232000020C844509D0426800EB020C634509D0D9
:102330000360884219D008607047406802444A60D0
:102340000846F0E710B40B4C2468A3420BD05B683E
:102350001A4442600B681B680360884200D0086022
:102360005DF8044B70470460F7E77047B811002030
:10237000A8010020A401002070B5044670B110F13E
:10238000090F0AD8083414F0070307D0C3F1080373
:10239000DA43A24224D31C4400E0002400F030FFC2
:1023A000504B1B68F3B1002CC0F28480002C00F06D
:1023B00083804D4B1868A042C0F08D804B4B1B684A
:1023C0004B4A934203D302F6FF72934216D94FF061
:1023D000F00383F31188BFF36F8FBFF34F8FFEE7D6
:1023E0000024DBE7FFF756FFDDE74FF0F00383F350
:1023F0001188BFF36F8FBFF34F8FFEE73B495A68D9
:10240000A2420AD21A6842B139498A42EDD319462A
:10241000384B9A42E9D81346F1E7324A12689A4299
:102420005BD00D680835324A954203D302F6FF723D
:10243000954208D94FF0F00383F31188BFF36F8FF3
:10244000BFF34F8FFEE71A680A605A68A2420FD3A3
:10245000121B102A1AD91E1916F0070F11D04FF0AF
:10246000F00383F31188BFF36F8FBFF34F8FFEE745
:102470004FF0F00383F31188BFF36F8FBFF34F8FDB
:10248000FEE772605C600A681A510E605A68801A32
:102490001549086018490968884201D21649086040
:1024A00042F000425A6000221A60144A1368013355
:1024B000136002E0002500E0002500F061FF15F048
:1024C000070F0CD04FF0F00383F31188BFF36F8F29
:1024D000BFF34F8FFEE70025EFE70025EDE7284625
:1024E00070BD00BFA4010020A8110020B811002079
:1024F000A8010020A7110020AC110020B01100207D
:1025000000284CD038B50446A0F10805244B9D4264
:1025100010D303F6FF739D420CD850F8043C002BF7
:1025200011DB4FF0F00383F31188BFF36F8FBFF31C
:102530004F8FFEE74FF0F00383F31188BFF36F8FE7
:10254000BFF34F8FFEE750F8082C42B14FF0F00375
:1025500083F31188BFF36F8FBFF34F8FFEE7002B1C
:1025600016DA23F0004340F8043C072B11D800F0A2
:1025700047FE54F8041C0B4A13680B4413602846AA
:10258000FFF7B4FE084A13680133136000F0F8FE49
:1025900038BDA3F10802002101F0DEFBE7E7704738
:1025A000A8010020A8110020B411002000F10803A8
:1025B00043604FF0FF328260C36003610023036019
:1025C000704700230361704730B40D68B5F1FF3FD9
:1025D00011D000F108031C465B681A68AA42FAD9B8
:1025E00063684B6099608C606160086103680133C7
:1025F000036030BC70470469F2E703694168826890
:102600008A60416851605A68824205D000220261A6
:10261000186801381860704782685A60F6E7000051
:1026200082B0002301930D4B1B68B3F1FF3F08D02C
:102630004FF0F00383F31188BFF36F8FBFF34F8F19
:10264000FEE74FF0F00383F31188BFF36F8FBFF302
:102650004F8F019B002BFCD002B070470C00002074
:10266000074B19680868B0E8F04F80F30988BFF39A
:102670006F8F4FF0000080F311887047AFF3008038
:102680000812002008480068006880F308884FF0AE
:10269000000080F3148862B661B6BFF34F8FBFF3BA
:1026A0006F8F00DF00BF000008ED00E000000000B9
:1026B000EFF30980BFF36F8F154B1A681EF0100FF0
:1026C00008BF20ED108A20E9F04F10602DE90900C5
:1026D0004FF0F00080F31188BFF34F8FBFF36F8F7F
:1026E00000F022FF4FF0000080F3118809BC196848
:1026F0000868B0E8F04F1EF0100F08BFB0EC108A69
:1027000080F30988BFF36F8F704700BFAFF300807D
:1027100008120020DFF80C00016841F4700101602C
:102720007047000088ED00E04FF0807340F8043CF3
:1027300021F0010140F8081C054B40F80C3C40F822
:10274000202C6FF0020340F8243C4438704700BF4F
:10275000212600084FF0F00383F31188BFF36F8F39
:10276000BFF34F8F0B4A136801331360012B00D066
:1027700070474FF0E023D3F8043D13F0FF0FF7D07C
:102780004FF0F00383F31188BFF36F8FBFF34F8FC8
:10279000FEE700BF0C000020094B1B6843B94FF057
:1027A000F00383F31188BFF36F8FBFF34F8FFEE702
:1027B000013B034A13600BB983F31188704700BFD4
:1027C0000C00002008B5FFF77FF94FF0F00383F30A
:1027D0001188BFF36F8FBFF34F8F00F01FFD28B13B
:1027E0004FF0E0234FF08052C3F8042D002383F311
:1027F000118808BD4FF0E02300221A619A61024A55
:102800005A6107221A617047FF7002004FF0E023FF
:10281000D3F8002D5A4B9A4217D04FF0E023D3F84B
:10282000002D584B9A4219D04FF0E023D3F8083DC1
:10283000D96A554A91421AD04FF0F00383F31188B8
:10284000BFF36F8FBFF34F8FFEE74FF0F00383F3BB
:102850001188BFF36F8FBFF34F8FFEE74FF0F00388
:1028600083F31188BFF36F8FBFF34F8FFEE79A6B2F
:10287000464B9A4208D04FF0F00383F31188BFF320
:102880006F8FBFF34F8FFEE730B583B00023019306
:102890003F4B1A78D2B28DF80220FF221A701B78B3
:1028A000DBB28DF803309DF8033003F0F003394AB2
:1028B000137043B94FF0F00383F31188BFF36F8FA8
:1028C000BFF34F8FFEE79DF80330DB4313F0F00FAB
:1028D00008D04FF0F00383F31188BFF36F8FBFF37D
:1028E0004F8FFEE79DF8033013F0800F09D0019B56
:1028F000013301939DF803305B00DBB28DF80330A8
:10290000F0E7019B082B36D0019BC3F10703224A55
:102910001360214A13681B02136003F4E063136021
:102920009DF80230DBB21A4A13704FF0E024D4F85D
:10293000203D43F47F03C4F8203DD4F8203D43F00C
:102940007F43C4F8203D0025C4F81C5DFFF752FF0B
:10295000124B1D60FFF7DEFED4F8343F43F04043D6
:10296000C4F8343FFFF78EFE00F0DEFDFFF758FE9F
:10297000284603B030BD084B00221A60C9E700BFEB
:1029800071C20F4170C20F4161260008B1260008D4
:1029900000E400E0C0110020C41100200C00002061
:1029A00010B50446FFF7D6FEA36B23B90124FFF749
:1029B000F3FE204610BD0024F9E70346026C6AB11D
:1029C00010B50846D9681144D9609C68A14201D36A
:1029D0001968D960D96801F0B1F910BD704738B5F0
:1029E0000546FFF7B7FE95F8454064B201E0013CAB
:1029F00064B2002C0ADD6B6A43B105F1240000F0DB
:102A000021FE0028F3D000F0E9FEF0E7FF2385F86F
:102A10004530FFF7C1FEFFF79DFE95F8444064B2D4
:102A200001E0013C64B2002C0ADD2B6943B105F1E1
:102A3000100000F007FE0028F3D000F0CFFEF0E712
:102A4000FF2385F84430FFF7A7FE38BD38B590B1B5
:102A50000D460446C36B2BB1026C0021A3FB02237D
:102A600093B999B14FF0F00383F31188BFF36F8FDF
:102A7000BFF34F8FFEE74FF0F00383F31188BFF3EE
:102A80006F8FBFF34F8FFEE70121EAE7FFF762FE8A
:102A90002368E26B216C01FB0230A0600020A06380
:102AA0006360013A02FB0133E360FF2384F84430A2
:102AB00084F84530B5B923691BB9FFF76DFE0120D5
:102AC00038BD04F1100000F0BDFD0028F5D04FF036
:102AD000E0234FF08052C3F8042DBFF34F8FBFF3B4
:102AE0006F8FEAE704F11000FFF760FD04F12400A6
:102AF000FFF75CFDE1E710B5034602980C4631B9DB
:102B00000060C36304640121FFF7A0FF10BD0260F1
:102B1000F7E7A3B110B584B01C46D8B102B1C9B172
:102B2000B2B148230393039B482B1CD04FF0F00312
:102B300083F31188BFF36F8FBFF34F8FFEE74FF022
:102B4000F00383F31188BFF36F8FBFF34F8FFEE75E
:102B50000029E6D04FF0F00383F31188BFF36F8FA5
:102B6000BFF34F8FFEE7039B012384F846300094A8
:102B70009DF81830FFF7BFFF204604B010BDF0B538
:102B800085B0019290B10F460446C1B100F02CFE11
:102B9000064600BB019B002B5ED04FF0F00383F391
:102BA0001188BFF36F8FBFF34F8FFEE74FF0F00335
:102BB00083F31188BFF36F8FBFF34F8FFEE7036C72
:102BC000002BE3D04FF0F00383F31188BFF36F8F36
:102BD000BFF34F8FFEE700263EE039462046FFF761
:102BE000ECFE013DA563236923B9FFF7D5FD012064
:102BF00005B0F0BD04F1100000F024FD0028F4D071
:102C00004FF0E0234FF08052C3F8042DBFF34F8FF5
:102C1000BFF36F8FE9E7FFF7BFFD0020E8E702A8E9
:102C200000F08CFD012621E0002384F8443029E0E7
:102C3000002384F845302BE02046FFF7D0FE00F05B
:102C40009FFB09E02046FFF7CAFE00F099FB2046F3
:102C5000FFF7A6FE00283FD1FFF77CFDA56B002DF6
:102C6000BBD1019B002BD6D0002ED8D0FFF794FD0E
:102C700000F0C6FAFFF76EFD94F844305BB2B3F192
:102C8000FF3FD1D094F845305BB2B3F1FF3FCFD0D6
:102C9000FFF782FD01A902A800F05CFD0028D1D158
:102CA0002046FFF77DFE0028C6D0019904F12400DC
:102CB00000F086FC2046FFF792FE00F061FB002842
:102CC000CAD14FF0E0234FF08052C3F8042DBFF378
:102CD0004F8FBFF36F8FBFE7002089E730B110B48B
:102CE0000C4601468CB10020034612E04FF0F00381
:102CF00083F31188BFF36F8FBFF34F8FFEE70E484A
:102D000000EBC30008B1046041605DF8044B7047FC
:102D10000133072BF6D8084A02EBC30252688A42F5
:102D2000EDD00028F4D1044A52F83320002AEFD124
:102D3000014800EBC300EBE7C811002070B5044662
:102D40000D461646FFF706FD94F844305BB2B3F12A
:102D5000FF3F0DD094F845305BB2B3F1FF3F0BD08D
:102D6000FFF71AFDA36B5BB12046FFF738FE70BD7D
:102D7000002384F84430EDE7002384F84530EFE782
:102D80003246294604F1240000F032FCECE7000052
:102D9000074B1B681B6823B9064B4FF0FF321A60C4
:102DA0007047034B1B68DB681A68024B1A60704758
:102DB0000C120020281900202DE9F0410746984602
:102DC000069E089C206B02F18043013B00EB8303CD
:102DD00023F0070581B18C4600220F2A09D81CF880
:102DE0000210A31883F834101CF8021009B1013244
:102DF000F3E7002384F843301F2E08D94FF0F00387
:102E000083F31188BFF36F8FBFF34F8FFEE7E66246
:102E10006664201DFFF7D5FB04F11800FFF7D1FB16
:102E20002461C6F12006A6616462424639462846FE
:102E3000FFF77AFC2060079B03B11C60BDE8F081BE
:102E40002DE9F04186B00D9E9EB104468846174696
:102E50001D460E9BB3B154230593059B542B1AD0EA
:102E60004FF0F00383F31188BFF36F8FBFF34F8FE1
:102E7000FEE74FF0F00383F31188BFF36F8FBFF3CA
:102E80004F8FFEE74FF0F00383F31188BFF36F8F8E
:102E9000BFF34F8FFEE7059B542200210E9800F0F0
:102EA0005BFF0E9B1E6302230E9A82F851300023B3
:102EB000039302920F9B01930C9B00932B463A467F
:102EC00041462046FFF778FF0E9806B0BDE8F08136
:102ED00038B5002407E004EB840293000E48184440
:102EE000FFF764FB01341F2CF5D90C4D2846FFF782
:102EF0005DFB0B4C2046FFF759FB0A48FFF756FBDA
:102F00000948FFF753FB0948FFF750FB084B1D60CA
:102F1000084B1C6038BD00BF14120020A818002008
:102F2000BC18002034190020601900204C19002022
:102F30000C1200201012002010B50446FFF70AFC06
:102F40002A4A136801331360294B1B685BB1294B74
:102F50001B686BB9264B1B68DA6AE36A9A4207D88A
:102F6000234B1C6004E0224B1C601368012B39D0FA
:102F7000214A136801331360E36A204A12689342BE
:102F800001D91E4A13601E4A03EB830302EB83033D
:102F90005B68A3609868E060211D41609960E36A06
:102FA00003EB830102EB8100606152F821100131D3
:102FB00003EB830342F82310FFF7EEFB0D4B1B6876
:102FC0007BB10B4B1B68DA6AE36A9A4209D24FF075
:102FD000E0234FF08052C3F8042DBFF34F8FBFF3AF
:102FE0006F8F10BDFFF774FFC2E700BF941400207D
:102FF0000812002048190020A0160020A418002064
:10300000141200202DE9F04385B006460F46154600
:1030100098469000FFF7B0F9814610B35420FFF7AF
:10302000ABF90446C8B15422002100F095FEC4F863
:10303000309074B1002384F85130039302940D9BB7
:1030400001930C9B009343462A4639463046FFF7CE
:10305000B3FE204605B0BDE8F0834846FFF750FABE
:10306000E7E70446F5E710B5044690F8513063B140
:10307000012B11D0022B0ED04FF0F00383F31188F7
:10308000BFF36F8FBFF34F8FFEE7006BFFF738FA88
:103090002046FFF735FA10BDFFF732FAFBE70000D4
:1030A0000F4B1B68D3B110B5FFF754FB0D4BDB681A
:1030B000DC68201DFFF7A1FA0B4A1368013B13607F
:1030C000074A1368013B1360FFF766FB2046FFF7D2
:1030D000CAFF034B1B68002BE6D110BD704700BF31
:1030E00098140020601900209414002008B5FFF700
:1030F000D7FF074B1B68012BF9D94FF0E0234FF0A6
:103100008052C3F8042DBFF34F8FBFF36F8FEEE7EC
:10311000141200202DE9F04104460E461F4B1D6895
:103120001F4B1F681F4BD3F800801F4B18680430DB
:10313000FFF763FAB4F1FF3F0DD02C441A4B1B6824
:103140005C60A5421DD9184B196804314046FFF751
:103150003BFABDE8F081002EEFD0144A5168124BC3
:103160001868816018688C68C460186804306060F2
:103170001868043088601B685A6113680133136053
:10318000E7E7094B196804313846FFF71DFA084B89
:103190001B68A342DDD9064B1C60DAE774190020D6
:1031A0000C12002010120020081200204C190020E0
:1031B0002819002010B586B00024059405AC0394AE
:1031C0000A9C0294099C0194089C0094FFF738FE25
:1031D00008B1FFF7B1FE059806B010BD10B582B07A
:1031E000059C0194049C0094FFF70CFF20B1FFF7AD
:1031F000A3FE012002B010BD4FF0FF30FAE700003F
:10320000024A136801331360704700BF9C16002008
:10321000014B1868704700BF741900204D4B1B68A4
:10322000002B40F08E8070B54B4B1C6801341C6045
:10323000C4B94A4B1B681B6843B14FF0F00383F3DA
:103240001188BFF36F8FBFF34F8FFEE7434A1168BA
:10325000434B186810601960424A136801331360C9
:10326000FFF796FD404B1B68A34205D900203F4B5A
:103270001B68002B6BD170BD002037E03A4B4FF03C
:10328000FF321A60F3E7384B1A60F0E7D9685160F3
:1032900042E000219962116801391160DA6A34490B
:1032A00009688A4201D932490A60324902EB820236
:1032B0004FEA820C8C44DCF804209A609668DE6049
:1032C00075609560DA6A02EB820C4FEA8C054E1944
:1032D0005E614D5901354FEA8C0C41F80C50DA6AA9
:1032E000254B1B68DB6A9A4200D901201B4B1B68E7
:1032F0001B68002BC2D0194B1B68DB68DB685A685F
:103300009442C0D35A699D68D968A9609D684D6090
:1033100051681D1DA942B9D00021596111680139B8
:1033200011609A6A002AB9D0DE69196AB160DE6953
:103330004E60566803F118018E42AAD1196A516095
:10334000A7E70E4A1368013313600020704701207D
:1033500091E700BF9C160020741900200C12002079
:10336000101200202C19002028190020CC19002050
:10337000A418002014120020081200203019002088
:1033800010B5FFF7E7F94C4B1B6843B94FF0F0035A
:1033900083F31188BFF36F8FBFF34F8FFEE7464B68
:1033A0001A68013A1A601B68002B7FD1434B1B68D7
:1033B0003BB900247BE0196A516015E0D96851607F
:1033C00021E000233E4A1268002A4AD03C4BDB68C9
:1033D000DB689A6AD869196A8160D8694860506860
:1033E00003F118018842E6D0002199621168013981
:1033F00011605A699868D968816098684860516816
:10340000181D8142DAD0002159611168013911601B
:10341000DA6A2C4909688A4201D92A490A602A498C
:1034200002EB820201EB820252689A609468DC60CF
:1034300060609060DA6A02EB820001EB80045C61FC
:1034400051F82000013002EB820241F82200D96AD3
:103450001E4A1268D26A9142B4D91D4A01211160F4
:10346000B0E70BB1FFF794FC1A4B1C6894B9184BEA
:103470001C68E4B1154B1B684FF0E0234FF08052FD
:10348000C3F8042DBFF34F8FBFF36F8F01240EE0FD
:10349000013C07D0FFF7C2FE0028F9D00C4B0122F7
:1034A0001A60F5E70B4B00221A60E0E70024FFF7F3
:1034B00073F9204610BD00BF9C1600209414002014
:1034C00034190020A4180020141200200812002033
:1034D000CC1900203019002010B550B94FF0E0236E
:1034E0004FF08052C3F8042DBFF34F8FBFF36F8F9F
:1034F00010BD0446FFF784FE0A4B1B68012B08D061
:103500004FF0F00383F31188BFF36F8FBFF34F8F3A
:10351000FEE700212046FFF7FDFDFFF731FF002801
:10352000E6D1DBE79C160020204B1B681BB1204B2B
:1035300001221A6070471E4B00221A601D4B1B6847
:1035400003EB83018A001C498A585AB90BB1013B2D
:10355000F6E74FF0F00383F31188BFF36F8FBFF3EB
:103560004F8FFEE703EB830082000A4450684068F7
:10357000506003EB830C4FEA8C02083211448842FE
:103580000CD003EB830291000B4A0A445268D168C5
:103590000A4A116007490B60136870476246910040
:1035A000054A0A44D1685160EBE700BF9C16002031
:1035B000CC190020A41800201412002008120020AA
:1035C00058B110B50C46094A11681831FEF7FCFFD6
:1035D00001212046FFF79EFD10BD4FF0F00383F35D
:1035E0001188BFF36F8FBFF34F8FFEE708120020E3
:1035F00038B5D8B18C46114605464268104B18685C
:10360000C2611868946804621868183060601868AD
:10361000183090601B689D622B6801332B6009B1E4
:103620004FF0FF3C6046FFF775FD38BD4FF0F003EB
:1036300083F31188BFF36F8FBFF34F8FFEE700BF97
:1036400008120020C368DB68002B4ED010B49A6AC1
:10365000D869196A8160D8694860516803F1180017
:1036600081424BD0002199621168013911602D4AC5
:103670001268002A48D15A699868D96881609868A8
:1036800048605168181D81423BD000215961116882
:1036900001391160DA6A244909688A4201D922494C
:1036A0000A60224902EB820201EB820252689A60B0
:1036B0009468DC6060609060DA6A02EB820001EB83
:1036C00080045C6151F82000013002EB820241F875
:1036D0002200DA6A164B1B68DB6A9A4220D9012065
:1036E000144B18605DF8044B70474FF0F00383F300
:1036F0001188BFF36F8FBFF34F8FFEE7196A5160D8
:10370000B0E7D9685160C0E70B4A5168D9618C684D
:103710001C62606088609A62116801311160D8E7AC
:103720000020DFE79C160020A418002014120020BF
:1037300008120020CC19002034190020034B1B680C
:103740000360034B1B684360704700BF2C190020C7
:1037500074190020F8B5B8B10C460546E9B1FEF77A
:10376000F9FF1C4B19686B68C81A2268B2F1FF3F59
:103770002AD0194E36682F68B74217D08B4215D819
:1037800000232360012420E04FF0F00383F311882D
:10379000BFF36F8FBFF34F8FFEE74FF0F00383F35C
:1037A0001188BFF36F8FBFF34F8FFEE7824203D8BC
:1037B00000232360012408E05B1A13442360284699
:1037C000FFF7BCFF002400E00024FEF7E5FF2046E1
:1037D000F8BD00BF741900202C190020014B0122F4
:1037E0001A607047CC190020054B1B6833B1054B9C
:1037F0001B680BB100207047022070470120704702
:10380000481900209C160020034B0360034B0B60FB
:1038100080231360704700BFD41800209C14002040
:1038200030B58DB000230F2B09DC154AD25C03F1B3
:103830003001694401F8102C0AB10133F3E7002488
:10384000002C02DD01200DB030BD00250595069548
:1038500007AA06A905A8FFF7D7FF059B0293069BB9
:10386000019300952B46079A08A90648FFF7A2FC8A
:10387000054B43F8240008B10134E1E70020E2E7FA
:1038800074460008ED300008D018002008B5FFF796
:10389000C7FF012807D0012808D0B0F1FF3F1AD098
:1038A000114B1B6808BD00F0C3F9F4E74FF0F003BB
:1038B00083F31188BFF36F8FBFF34F8F0B4B4FF024
:1038C000FF321A600A4B01221A600A4B00221A606A
:1038D000FEF79CFFE4E74FF0F00383F31188BFF39A
:1038E0006F8FBFF34F8FFEE71000002028190020D4
:1038F0004819002074190020034B0360034B0B6030
:1039000080231360704700BF78190020A4160020A0
:10391000064B1A6813682BB90123036023B9D368D7
:10392000186870470023F8E700207047D01900207E
:1039300008B54160006191420CD8D21A83699A425D
:1039400001D3012008BD011D094B1868FEF73CFE9C
:103950000020F7E79A4201D2994206D2011D054B99
:103960001868FEF731FE0020ECE70120EAE700BF0F
:10397000D4190020D019002070B504460D46164613
:1039800004E0A3691D44236A20469847A1692B4699
:10399000324629442046FFF7CBFF0028F1D170BD05
:1039A00070B505460E460D4B1B68DB68DC68201DB4
:1039B000FEF723FE94F8243013F0040F07D123F010
:1039C000010384F82430236A2046984770BD3246AC
:1039D00029462046FFF7D0FFF5E700BFD0190020A9
:1039E00008B505E0DB684FF0FF311868FFF7D8FF36
:1039F000054B1B681A68002AF4D1044A1068024972
:103A00000860136008BD00BFD0190020D419002041
:103A100038B50546FFF7FCFB0446074B1B6883429D
:103A200005D800232B60044B1C60204638BDFFF7EF
:103A3000D7FF01232B60F6E7781A002070B582B01B
:103A400006460C46FFF7DCFB01A8FFF7E1FF019BF0
:103A500033BB05460CB9B04219D224B1124A1268E0
:103A60001268DAB901242246711B104B1868FFF75F
:103A700065F9FFF785FCA8B94FF0E0234FF08052BD
:103A8000C3F8042DBFF34F8FBFF36F8F0AE0FFF72A
:103A900077FC29463046FFF783FF03E01C46E2E748
:103AA000FFF76EFC02B070BDD4190020C41A0020CC
:103AB00030B585B00023019302930393002201A93E
:103AC000384B1868FFF75BF8002869D0019B002B82
:103AD000F4DB039C636913B1201DFEF78EFD68467D
:103AE000FFF796FF0546019B013B082BE6D8DFE870
:103AF00003F00505293049050529300094F82430E4
:103B000043F0010384F82430029BA1690246194462
:103B10002046FFF70DFF0028D0D094F8243013F092
:103B2000040F07D123F0010384F82430236A2046D0
:103B30009847C3E7A3692A46029919442046FFF72C
:103B40001BFFF3E794F8243023F0010384F82430BA
:103B5000B4E794F8243043F0010384F82430029948
:103B6000A16131B10346024601442046FFF7E0FE61
:103B7000A4E74FF0F00383F31188BFF36F8FBFF317
:103B80004F8FFEE794F8243013F0020F04D023F097
:103B9000010384F8243091E72046FEF7B1FC8DE75D
:103BA00005B030BDC41A002000B583B001A8FFF7EE
:103BB000AFFE0199FFF742FFFFF77AFFF6E700003B
:103BC00030B583B0FEF7C6FD114B1B681BB1FEF785
:103BD000E3FD03B030BD0F4D2846FEF7E7FC0E4C69
:103BE0002046FEF7E3FC0D4B1D600D4B1C600023CF
:103BF00000930C4B0C4A0C210A20FEF78AFF044B61
:103C000018600028E3D00949FFF768F8DFE700BF34
:103C1000C41A0020501A0020641A0020D019002075
:103C2000D41900207C1A0020D81900207C460008F6
:103C300010B588B0FFF7C4FF124B1B68CBB100244E
:103C40000594069407AA06A905A8FFF755FE059B4B
:103C50000293069B01931F2300932346079A0A4968
:103C60000A48FFF7A7FA0A4B186010B1012008B004
:103C700010BD4FF0F00383F31188BFF36F8FBFF3D4
:103C80004F8FFEE7C41A002084460008A93B0008B5
:103C9000C81A0020DFF834D00D480E490E4A002320
:103CA00002E0D458C4500433C4188C42F9D30B4AF0
:103CB0000B4C002301E013600432A242FBD3FEF759
:103CC000BBFA00F017F8FCF79FFC704700000220D9
:103CD0000000002078000020D04600087800002076
:103CE000DC1A0020FEE70000014B1868704700BF97
:103CF0001400002070B50D4D0D4C641BA41000265F
:103D0000A64209D10B4D0C4C00F08EFC641BA41094
:103D10000026A64205D170BD55F8043B98470136F0
:103D2000EEE755F8043B98470136F2E7C84600082D
:103D3000C8460008C8460008CC4600080A4491421C
:103D400000F1FF3300D1704710B511F8014B03F8B3
:103D5000014F9142F9D110BD02440346934200D174
:103D6000704703F8011BF9E70EB400B59CB01DAB1A
:103D7000029006906FF000410948079104910949AB
:103D800053F8042B05910068019302A900F068F82C
:103D9000029B00221A701CB05DF804EB03B0704760
:103DA000140000200802FFFF2DE9F0478E689E42B4
:103DB00082460C4690461F4638D88A8912F4906F86
:103DC00032D025680969A5EB0109656905EB450550
:103DD00005EBD57501334B446D109D4238BF1D4630
:103DE000530531D5294600F055FB064650B90C2342
:103DF000CAF80030A38943F04003A3814FF0FF309D
:103E0000BDE8F08721694A46FFF798FFA38923F4AC
:103E1000906343F08003A381266165614E44A5EB66
:103E200009052660A5603E46BE4200D93E46206890
:103E30003246414600F0A8FAA3689B1BA3602368A2
:103E4000334423600020DBE72A4600F097FB064658
:103E50000028E1D12169504600F0B0FAC7E7000020
:103E60002DE9F04F98468B891B069DB007460D46FD
:103E700014460ED50B6963B9402100F00BFB286096
:103E8000286120B90C233B604FF0FF30D1E0402384
:103E90006B610023099320238DF82930CDF80C8025
:103EA0003023DFF8A8818DF82A304FF0010923462E
:103EB0009A4613F8012B0AB1252AF9D1BAEB040B63
:103EC0000BD05B46224629463846FFF76DFF01308E
:103ED00000F0AA80099A5A4409929AF80030002BFF
:103EE00000F0A28000234FF0FF32CDE905230AF154
:103EF000010A049307938DF853301A935446052210
:103F000014F8011B5148FCF763F9049AD8B9D0069C
:103F100044BF20238DF85330110744BF2B238DF865
:103F200053309AF800302A2B15D0079A54460020B7
:103F30004FF00A0C214611F8013B303B092B4ED9BA
:103F4000B0B1079214E0A0EB080309FA03F313439E
:103F50000493A246D2E7039B191D1B680391002B13
:103F6000BBBF5B4242F0020207930793B8BF0492C3
:103F700023782E2B0CD163782A2B35D1039B1A1D65
:103F80001B680392002BB8BF4FF0FF330234059338
:103F9000DFF8C8A0217803225046FCF719F940B198
:103FA0004023A0EB0A0003FA00F0049B0343013412
:103FB000049314F8011B26488DF828100622FCF7FC
:103FC00007F9002838D0234B1BBB039B073323F092
:103FD000070308330393099B3344099367E70CFBFA
:103FE00002320C460120A5E700230134059319464F
:103FF0004FF00A0C204610F8012B303A092A03D959
:10400000002BC5D00591C3E70CFB01210446012319
:10401000F0E703AB00932A460F4B04A93846AFF3F1
:104020000080421C0646D6D1AB895B063FF52CAF1B
:1040300009981DB0BDE8F08F03AB00932A46064BEC
:1040400004A9384600F07AF8EBE700BF8C46000878
:104050009646000800000000A93D000892460008AE
:104060002DE9F047164699468A680B69DDF82080ED
:104070009342B8BF1346336091F8432007460C467D
:104080000AB1013333602368990642BF33680233B3
:104090003360256815F0060506D104F1190AE368B6
:1040A00032689B1AAB4226DC94F84320131E226828
:1040B00018BF012392062BD404F143024946384627
:1040C000C04701301ED02368E568326803F006035C
:1040D000042B08BFAD1AA36822690CBF25EAE57559
:1040E00000259342C4BF9B1AED1800261A34B5422E
:1040F0001AD1002008E00123524649463846C047FD
:10410000013003D14FF0FF30BDE8F0870135C6E73D
:10411000E1185A1C302081F84300224494F84510DD
:1041200082F843100233C7E7012322464946384646
:10413000C0470130E6D00136D9E700002DE9FF473E
:104140000F7E0C9D782F914680460C469A4601F1D1
:10415000430207D8622F0AD8002F00F0D880582FCA
:1041600000F0A38004F1420584F842703AE0A7F120
:104170006303152BF6D801A151F823F0D5410008AF
:10418000E9410008654100086541000865410008F3
:1041900065410008E94100086541000865410008E3
:1041A0006541000865410008F54200081942000811
:1041B000D742000865410008654100081743000820
:1041C0006541000819420008654100086541000882
:1041D000DF4200082B681A1D1B682A6004F14205A3
:1041E00084F842300123A3E020682968060601F123
:1041F00004030AD50E682B60002E03DA2D237642C5
:1042000084F843305E480A2319E00E682B6010F0F2
:10421000400F18BF36B2EFE72B682068191D2960E0
:10422000010601D51E6802E04606FBD51E885448EB
:104230006F2F0CBF08230A23002184F84310656800
:10424000A560002DA2BF216821F0040121600EB9F4
:10425000002D4DD01546B6FBF3F103FB1167C75D8A
:1042600005F8017D3746BB420E46F4D9082B0BD129
:104270002368DE0708D5236961689942DEBF3023D1
:1042800005F8013C05F1FF35521B2261CDF800A075
:104290004B4603AA21464046FFF7E2FE01304CD1CF
:1042A0004FF0FF3004B0BDE8F087354881F8457025
:1042B0002968236851F8046B29601D0614D5DF07AF
:1042C00044BF43F0200323601EB9236823F020037A
:1042D00023601023B0E7236843F020032360782392
:1042E000284884F84530E3E7590648BFB6B2E6E708
:1042F0001546BBE72B6826686169181D28603506DE
:104300001B6801D5196002E07006FBD519800023F7
:1043100023611546BAE72B681A1D2A601D6862687A
:1043200000212846FBF754FF08B1401B606063681A
:104330002361002384F84330A8E723692A464946CD
:104340004046D0470130ABD023689B0713D4E068C8
:10435000039B9842B8BF1846A4E70123324649465A
:104360004046D04701309BD00135E36803995B1A82
:10437000AB42F2DCEBE7002504F11906F5E700BFDC
:104380009D460008AE460008884210B501EB0204C5
:1043900002D98442234607D8431EA14208D011F80F
:1043A000012B03F8012FF8E7024401468A4200D1AD
:1043B00010BD13F8014D02F8014DF7E737B500299C
:1043C00044D051F8043C0190002BA1F10404B8BF83
:1043D000E41800F013F91E4A0198136833B96360BA
:1043E000146003B0BDE8304000F00EB9A34208D914
:1043F000256861198B4201BF19685B684919216002
:10440000EDE71A465B680BB1A342FAD9116855185B
:10441000A5420BD1246821445418A3421160E0D175
:104420001C685B68536021441160DAE702D90C23F1
:104430000360D6E7256861198B4204BF19685B6881
:10444000636004BF491921605460CAE703B030BDFE
:10445000CC1A002070B50E4E0C463168054611B9D5
:1044600000F0BCF830602146284600F0B7F8431C45
:104470000AD0C41C24F00304A04207D0211A284605
:1044800000F0ACF8013001D14FF0FF34204670BD90
:10449000D01A00202DE9F041CD1C25F00305083588
:1044A0000C2D38BF0C25002D074601DBA94205D98C
:1044B0000C233B6000263046BDE8F0812E4E00F014
:1044C0009DF833681C4634BB29463846FFF7C2FFC7
:1044D000431C04464DD134682646002E40D1236843
:1044E0003146384604EB030800F078F880453AD1AD
:1044F000216803356D1A25F0030508350C2D38BFEA
:104500000C2529463846FFF7A5FF01302BD023683C
:104510002B4423600EE02268521B1ED40B2A16D9AE
:104520006119A342256018BF5960636808BF3160F4
:1045300062514B60384604F10B0600F065F826F036
:104540000706231DF21AB6D09B1BA350B3E762687F
:10455000A3420CBF32605A60ECE723466468B2E7BE
:1045600034467668B9E70C233B60384600F04CF8D7
:10457000A1E72560DEE700BFCC1A00202DE9F0415D
:10458000804614460E4621B9BDE8F0411146FFF7BA
:1045900081BF2AB9FFF712FF25462846BDE8F08102
:1045A00000F038F88442074602D8B4EB500F12D816
:1045B00021464046FFF76EFF05460028EDD0BC427D
:1045C0002246314628BF3A46FFF7B8FB31464046FF
:1045D000FFF7F4FEE1E73546DFE7000038B5064DAA
:1045E0000023044608462B60FDF730FE431C02D131
:1045F0002B6803B1236038BDD41A0020014800F0B5
:1046000011B800BFD81A0020014800F00CB800BF54
:10461000D81A002051F8043C181F002BBCBF0B58BF
:10462000C018704770477047F8B500BFF8BC08BCA9
:104630009E467047F8B500BFF8BC08BC9E46704760
:104640006D6561206973203A20256C640D0A0000B5
:104650006D61696E5F7461736B00000000000000A3
:104660000000000001020304060708090000000022
:104670000102030449444C4500000000546D72518E
:1046800000000000546D722053766300232D302B00
:104690002000686C4C006566674546470030313243
:1046A000333435363738394142434445460030319A
:1046B00032333435363738396162636465660000F9
:0846C000E0BBFF7F01000000D8
:0446C800B501000830
:0446CC009101000850
:1046D00001000000100000000024F400AAAAAAAA09
:1046E0001F00000018000020000000000000000073
:1046F00000000000000000000000000000000000BA
:1047000000000000000000000000000000000000A9
:104710000000000000000000000000000000000099
:104720000000000000000000000000000000000089
:104730000000000000000000000000000000000079
:08474000000000000000000071
:0400000508003C951E
:00000001FF
